:020000040800F2
:100000000000032071BB000859B700085BB7000867
:100010005DB700085FB7000861B700080000000086
:100020000000000000000000000000009121000816
:1000300063B70008000000002122000885220008A4
:10004000C1BB0008C1BB0008C1BB0008C1BB0008A0
:10005000C1BB0008C1BB0008C1BB0008C1BB000890
:10006000C1BB0008C1BB0008C1BB0008C1BB000880
:10007000C1BB0008C1BB0008C1BB0008C1BB000870
:10008000C1BB0008C1BB0008C1BB0008C1BB000860
:10009000C1BB0008C1BB0008C1BB0008C1BB000850
:1000A000C1BB000865B70008C1BB0008C1BB0008A0
:1000B000C1BB0008C1BB0008C1BB0008C1BB000830
:1000C000C1BB0008C1BB0008C1BB0008C1BB000820
:1000D000C1BB0008C1BB0008C1BB0008C1BB000810
:1000E000C1BB0008C1BB0008C1BB0008C1BB000800
:1000F000C1BB0008C1BB0008C1BB0008C1BB0008F0
:10010000C1BB0008C1BB0008C1BB0008C1BB0008DF
:10011000C1BB0008C1BB0008C1BB0008C1BB0008CF
:10012000C1BB0008C1BB0008C1BB0008C1BB0008BF
:10013000C1BB000871B70008C1BB0008C1BB000803
:10014000C1BB0008C1BB0008C1BB0008C1BB00089F
:10015000C1BB0008C1BB0008C1BB0008C1BB00088F
:10016000C1BB0008C1BB0008C1BB0008C1BB00087F
:10017000C1BB0008C1BB0008C1BB000800000000F3
:10018000C1BB0008C1BB0008C1BB0008C1BB00085F
:10019000C1BB0008C1BB0008C1BB0008C1BB00084F
:0C01A000C1BB0008C1BB0008C1BB0008C7
:1001B00010B5054C237833B9044B13B10448AFF3A1
:1001C00000800123237010BD780000200000000093
:1001D00034C0000808B5034B1BB103490348AFF313
:1001E000008008BD000000007C00002034C0000832
:1001F000034613F8012B002AFBD1181A0138704767
:1002000053B94AB9002908BF00281CBF4FF0FF317D
:100210004FF0FF3000F07AB9ADF1080C6DE904CE73
:1002200000F006F8DDF804E0DDE9022304B07047D1
:100230002DE9F0478C460D460446089E002B51D10F
:100240008A4217466DD9B2FA82FEBEF1000F0BD07A
:10025000CEF1200C01FA0EF520FA0CFC02FA0EF792
:100260004CEA050C00FA0EF44FEA174A250CBCFBC9
:10027000FAF81FFA87F90AFB18CC45EA0C4508FB87
:1002800009F3AB420AD9ED1908F1FF3280F023815E
:10029000AB4240F22081A8F102083D44ED1AA4B21D
:1002A000B5FBFAF00AFB105544EA054400FB09F9D6
:1002B000A14509D9E41900F1FF3380F00A81A14575
:1002C00040F2078102383C44A4EB090440EA0840AC
:1002D0000021002E61D024FA0EF4002334607360F4
:1002E000BDE8F0878B4207D9002E54D0002186E864
:1002F00021000846BDE8F087B3FA83F1002940F0F9
:100300008E80AB4202D3824200F2FA80841A65EBFF
:1003100003050120AC46002E3FD086E81010BDE852
:10032000F08712B90127B7FBF2F7B7FA87FEBEF1E3
:10033000000F34D1EB1B3A0C1FFA87FC0121B3FBF1
:10034000F2F8250C02FB183345EA03450CFB08F3D1
:10035000AB4207D9ED1908F1FF3002D2AB4200F2EF
:10036000D1808046ED1AA3B2B5FBF2F002FB105526
:1003700043EA05440CFB00FCA44507D9E41900F14D
:10038000FF3302D2A44500F2B8801846A4EB0C0457
:1003900040EA08409DE731463046BDE8F087CEF19F
:1003A000200405FA0EF307FA0EF720FA04F83A0CC7
:1003B00025FA04F448EA0308B4FBF2F14FEA1845C1
:1003C00002FB11441FFA87FC45EA044501FB0CF3CC
:1003D000AB4200FA0EF409D9ED1901F1FF3080F0BB
:1003E0008A80AB4240F2878002393D44EB1A1FFA03
:1003F00088F5B3FBF2F002FB103345EA034500FB3E
:100400000CF3AB4207D9ED1900F1FF386FD2AB42C4
:100410006DD902383D44EB1A40EA01418FE7C1F142
:10042000200722FA07F88B4005FA01F448EA030393
:1004300020FA07FE4FEA134CFD404EEA040EB5FBCE
:10044000FCF94FEA1E440CFB19551FFA83F844EAE5
:10045000054509FB08F4AC4202FA01F200FA01FA80
:1004600008D9ED1809F1FF3043D2AC4241D9A9F1C6
:1004700002091D442D1B1FFA8EFEB5FBFCF00CFB80
:1004800010554EEA054400FB08F8A04507D9E418CA
:1004900000F1FF3529D2A04527D902381C4440EA93
:1004A0000940A4EB0804A0FB02894C45C6464D4612
:1004B00015D312D056B1BAEB0E0364EB050404FA5F
:1004C00007F7CB401F43CC40376074600021BDE884
:1004D000F0871846F8E69046E0E6C245EAD2B8EB67
:1004E000020E69EB03050138E4E72846D7E74046EA
:1004F00091E78146BEE7014678E702383C4445E78C
:10050000084608E7A8F102083D442BE7704700BF02
:1005100008B50B4B1A6842F400721A601A6842F46C
:1005200080621A601A6842F480721A60032000F038
:100530002FF800200BF0D2F80BF0AEF8002008BD29
:10054000003C0240034A044B11681B780B441360C3
:10055000704700BF2842002000000020014B1868AF
:10056000704700BF2842002038B50446FFF7F6FF69
:10057000631C1CBF054B1B78054618BFE418FFF72A
:10058000EDFF401B8442FAD838BD00BF00000020B8
:10059000074AD36823F4E0631B041B0C43F0BF63DA
:1005A000000243F4003300F4E0600343D36070477B
:1005B00000ED00E0174B30B5DC68C4F30224C4F151
:1005C0000703251D042B28BF0423062D4FF001052A
:1005D00005FA03F303F1FF338CBF033C00241940F9
:1005E000A14005FA04F4013C2240002842EA01023D
:1005F0004FEA0212ADBF00F1604000F00F00064B61
:1006000000F56140B5BFD2B2D2B21A5480F80023CF
:1006100030BD00BF00ED00E014ED00E0002808DB75
:100620004209012300F01F0003FA00F0014B43F8D8
:100630002200704700E100E082B0074B4FF4FA520D
:100640001B68B3FBF2F3019300BF019B5A1E01929A
:10065000002BF9D102B070471000002007B500232D
:10066000019341F2180103685A5842F480125A501B
:100670005B580193FFF7E0FF019A03685A5003B0FB
:100680005DF804FB70B5044629B14FF40063C36004
:100690004FF480438360E3692268E0681568002BAB
:1006A000A36843EA0003304843F4007300EA0500FE
:1006B0000CBF4FF48061002103430B431360012002
:1006C0001568FFF751FF236840221D6001205A6022
:1006D0005D68FFF749FF23685D6000259D60DD6070
:1006E0009A6922F0BE021204120C42F080029A6152
:1006F00001209E69FFF738FF236801209E61DD61BC
:10070000DD69FFF731FF2268184BD56141F218050A
:10071000012051590B4043F0087343F00403535137
:100720005659FFF721FF2368114A5E5103F58053A4
:1007300001201A601D68FFF717FF226802F5805339
:100740001D60A369012B07D141F21C01535843F4EA
:10075000803343F0400353506369064A998811601F
:100760001A68054B1A6070BD0F8120FF233FDEF829
:100770008020C1024080024044800240F0B590F8E1
:100780004540012C4FF0020433D0012580F845503C
:1007900080F84440C16201F1200400254FF4801725
:1007A00040F2F45E03F1FF3C9D420BD1026841F23E
:1007B0001003D150012380F84430002380F84530E5
:1007C0001846F0BD0EFB052644F8186CC66944F8BF
:1007D000207C2EB954F8206C46F4400644F8206C76
:1007E00065452CBF0E46264644F8146C013520346E
:1007F000DAE72046F0BD2DE9F04190F84540012CA4
:100800004FF0020430D0012580F8455080F8444074
:10081000816201F1200400254FF0004644F2F457B4
:1008200040F2F45E03F1FF3C9D420CD1026841F2BC
:100830000C03D150012380F84430002380F8453068
:100840001846BDE8F0810EFB052844F8188C654574
:100850002CBF8846A04644F8206C44F81C7C44F821
:10086000148C01352034DFE72046BDE8F08100001C
:1008700090F84530012BF0B54FF0020368D001220B
:1008800080F8452080F8443029B980F8442080F869
:1008900045101046F0BDC36A1C68002C06DA12230E
:1008A00080F84430002380F84530F2E740F2F454F9
:1008B000A1422ED9B1FBF4F204FB12143CB3013275
:1008C000244C01F2F45104FB0211C1F30C01002489
:1008D00040F2F456571E1D6825F040551D601CB9A6
:1008E0001D6845F080551D60A74208BF1D685E6009
:1008F00004BF45F000551D601D6808BF59600134F4
:1009000045F0004594421D60DB68E4D10DE0012A0A
:10091000D6D11A6842F040521A601A68C1F30C012D
:1009200042F0004259601A60DB68C36241F214026F
:1009300003689958490705D50421995041F20402EA
:1009400000219950012380F84430002380F845307D
:100950001846F0BD0CFAFFFF90F84530012B30B57A
:100960004FF002033BD0012280F8452080F844304C
:1009700005241146836A1A68002A01DB013C06D16E
:100980000123002280F8443080F8452027E01A68CF
:10099000DD6802F44072B2F5007F03D10363816326
:1009A0008562E7E71A6812F4407F826B02D1013258
:1009B0008263F5E70132012A08BF036343631B68C2
:1009C0008263C3F30D43043BC363036B9B680364FF
:1009D000012380F844300023856280F845301846B2
:1009E00030BD7047704770B5026841F21406044686
:1009F000955915F0400521D00AF0CAFB2368402222
:100A00009A51012384F84430002384F84530236848
:100A100041F214054FF480325A515B591B040CD536
:100A20002046FFF7DFFF23684FF400425A510123AD
:100A300084F84430002384F8453070BD9359DA07B8
:100A4000E5D5FFF7CEFF22680123935184F84430A7
:100A500084F84550DBE7F8B590F84430822B054622
:100A6000164630D00268822380F844301369890129
:100A700001F4F86403F01C012143048AE402A4B2E7
:100A80000C4344F001041461FFF768FD074614F0BD
:100A9000010007D12B685B699BB23360012385F8A5
:100AA0004430F8BDFFF75AFDC01BB0F5803F07D3B7
:100AB000012385F84430002385F845300320F8BD34
:100AC0002B681C69E3E70220F8BD90F84430422B04
:100AD00070B505462ED0422380F8443003688C015F
:100AE000186904F4F86444F0030400F01C00204387
:100AF0002C8AE402A4B2044392B25A611C61FFF74B
:100B00002DFD064614F0010003D1012385F8443081
:100B100070BDFFF723FD801BB0F5803F07D3012395
:100B200085F84430002385F84530032070BD2B68DC
:100B30001C69E7E7022070BDF7B500230093044667
:100B4000002800F0DE8090F8443003F0FF021BB96B
:100B500080F845200AF08EFA002301936A4B5A6C04
:100B600042F480425A645B6C03F480430193019B1E
:100B7000664B5A6822F400025A605A68216A0A4396
:100B80005A60236803F580531A6842F001021A6024
:100B9000FFF7E4FC0546236803F580521268D0078E
:100BA0001DD41D6900F0C2FC594B5A4A03449342BC
:100BB00025F01C0522D845F0080523684FF40042B3
:100BC0001D6100212046FFF780FF054668B3012123
:100BD00020460125FFF756FD84F844500BE0FFF74F
:100BE000BDFC401BB0F5FA7FD5D90325002384F85E
:100BF000445084F84530284603B0F0BD464B474A80
:100C00000344934202D845F00C05D6E7444B454ACD
:100C100003449342D1D9444B444A0344934294BF82
:100C200045F0040545F01005C7E7FF20FFF79CFCE1
:100C30006368002B53D0FFF791FC41F288370646DA
:100C40006A4601212046FFF706FFFFF787FC801B5D
:100C5000B8420BD901212046FFF714FD012384F887
:100C60004430002384F845300325C4E7009B59072E
:100C7000E6D54FF4805200212046FFF726FF0028DA
:100C8000A5D1FFF76BFC41F2883706466A46012181
:100C90002046FFF7E0FEFFF761FC801BB842D9D881
:100CA000009B9A06F2D56A461F212046FFF7D3FE25
:100CB00000288CD1009B13F0100218BF4FF4006283
:100CC0005B074CBF00234FF48043E260A360002128
:100CD0002046FFF7D7FC012384F844308BE7A36854
:100CE000E2685B0843EAD20292B229462046FFF747
:100CF000ECFE00287FF46BAF40F6FF70FFF734FC8A
:100D0000E5E7012577E700BF0038024000380140E1
:100D100000D3CEFEBFE1E40040F1E9FD3F787D0164
:100D200000796CFCFF596202001F0AFA7FF0FA0298
:100D300090F84530012B73B505464FF0020031D0D5
:100D400000242B6885F8440001941A68012642F0BB
:100D5000080285F845601A601B680193FFF76CFC78
:100D60002B68019A1A6000941A6842F004021A6013
:100D70001B680093FFF760FC2B68009A1A602846F6
:100D8000FFF76CFC2A6841F218032046D15841F461
:100D90000051D150D15841F00201D15085F8446042
:100DA00085F8454002B070BD2DE9F04F85B00B6865
:100DB000DFF8C4816E4ADFF8C491019300234FF03D
:100DC000010E019C0EFA03FE0EEA0406B64540F041
:100DD000B6804C6824F01007022F16D14FEAD30AD0
:100DE00000EB8A0A03F0070BDAF820504FEA8B0B6E
:100DF0004FF00F0C0CFA0BFC25EA0C0C0D6905FAF0
:100E00000BF545EA0C05CAF820504FEA430A0325C2
:100E1000D0F800B005FA0AF5ED4304F0030C0BEA34
:100E2000050B0CFA0AFC013F4CEA0B0C012FC0F831
:100E300000C011D8876807EA050BCF6807FA0AFCDB
:100E40004CEA0B078760476827EA0E0EC4F30017C9
:100E50009F4047EA0E074760C7683D408F6807FA22
:100E60000AF73D43C560E50069D54FF0000BCDF8AA
:100E70000CB0D8F844703F4D47F48047C8F8447030
:100E8000D8F8447007F480470397039F23F00307C3
:100E900007F1804707F59C3703F0030CD7F808A04B
:100EA0004FEA8C0C4FF00F0E0EFA0CFEA8422AEA05
:100EB0000E0E4BD005F58065A84249D005F580653A
:100EC000A84247D005F58065A84245D005F5806564
:100ED000A84243D0484543D005F50065A84241D01B
:100EE00005F58065A8423FD005F58065A8423DD054
:100EF00005F58065A84214BF0A25092505FA0CF5F9
:100F000045EA0E05BD601568F74314F4803F0CBF39
:100F10003D4035431560556814F4003F0CBF3D401B
:100F200035435560956814F4801F0CBF3D40354330
:100F30009560D568A40254BF3D403543D560013368
:100F4000102B7FF43CAF05B0BDE8F08F5D46D5E7D0
:100F50000125D3E70225D1E70325CFE70425CDE717
:100F60000525CBE70625C9E70725C7E70825C5E717
:100F7000003C0140000002400038024000140240E2
:100F80000AB1816170470904FBE7F0B504468BB0F4
:100F900060B390F8BD33056803F0FF021BB980F819
:100FA000BC230AF0A3FD032384F8BD33EB6B254675
:100FB00013F4807355F8100B08BF236100F0D4FDC3
:100FC0000FCD6E460FC60FCD0FC695E8030086E81D
:100FD00003002546271D97E80E0055F8100B00F07A
:100FE00083FD064620B1022384F8BD33012550E07D
:100FF0000146206800F0BEFD3046D4F804E01C260F
:101000004FF0010C0146C2B2964500F101001CD818
:1010100000231C261946D8B2864503F1010322D8C5
:101020000FCD6E460FC60FCD0FC695E8030086E8BC
:10103000030097E80E00206800F0DEFD012305465E
:1010400000B3022284F8BD23D0E706FB024383F8F5
:101050003DC083F83C20A3F8422083F83F10596438
:1010600099641965CFE706FB004282F8FD1182F80A
:10107000FC0182F8FF11C2F80412C2F80812C2F88B
:101080001012C8E784F8380084F8BD33206800F0F7
:1010900077FE28460BB0F0BD2DE9F341044618B9A0
:1010A000012002B0BDE8F0810368DD0710D4236899
:1010B000980758D423681A0700F19A8023685B07C1
:1010C00000F1B880A269002A40F019810020E8E709
:1010D000A64B9A6802F00C02042A07D09A6802F024
:1010E0000C02082A0AD15B68590207D59F4B1B687E
:1010F0009A03DCD56368002BD9D1D1E763689B4D97
:10110000B3F5803F11D12B6843F480332B60FFF798
:1011100025FA964D06462B689B03C8D4FFF71EFAA6
:10112000801B6428F7D90320BBE7B3F5A02F04D1B7
:101130002B6843F480232B60E5E72A6822F4803291
:101140002A602A6822F480222A60002BDFD1FFF770
:1011500005FA06462B689F03A9D5FFF7FFF9801B08
:101160006428F7D9DFE7814B9A6812F00C0F07D09B
:101170009A6802F00C02082A11D15B685E020ED454
:101180007A4B1A68950702D5E268012A88D11A6855
:10119000216922F0F80242EAC1021A608AE7E26895
:1011A000734BB2B101221A60FFF7D8F96F4D0646B2
:1011B0002B68980707D52B68226923F0F80343EAC8
:1011C000C2032B6076E7FFF7C9F9801B0228EFD92D
:1011D000A9E71A60FFF7C2F9644D06462B68990724
:1011E0007FF568AFFFF7BAF9801B0228F6D99AE7B6
:1011F0006269604B7AB101221A60FFF7AFF95B4D6B
:1012000006466B6F9F073FF559AFFFF7A7F9801BA5
:101210000228F6D987E71A60FFF7A0F9534D064672
:101220006B6F98077FF54AAFFFF798F9801B02288C
:10123000F6D978E74D4B1A6C12F0805228D1019202
:101240001A6C42F080521A641B6C03F080530193B5
:10125000019B0126484D2B68D9051BD5A368434D3A
:10126000012B27D12B6F43F001032B67FFF776F992
:101270003E4D074641F288382B6F9B0739D5002E2B
:101280003FF420AF394A136C23F08053136419E7FD
:101290000026DFE72B6843F480732B60FFF75EF9CD
:1012A00007462B68DA05D9D4FFF758F9C01B022886
:1012B000F7D938E7052B04D12B6F43F004032B67D4
:1012C000D0E72A6F22F001022A672A6F22F0040277
:1012D0002A67002BCAD1FFF741F941F28838074647
:1012E0002B6F9807CBD5FFF739F9C01B4045F7D9CD
:1012F00019E7FFF733F9C01B4045BDD913E71B4D74
:10130000AB6803F00C03082B3FF4CAAE1B4E00235E
:10131000022A336034D1FFF721F907462B6899017F
:101320001ED4226AE3691343626A43EA8213E26AC3
:1013300043EA0263A26A0D4C5208013A43EA0243AF
:101340006B6001233360FFF709F9054623689A01B2
:101350003FF5BCAEFFF702F9401B0228F6D9E2E6E2
:10136000FFF7FCF8C01B0228D8D9DCE600380240A1
:1013700000004742800E4742007000406000474234
:10138000FFF7ECF804462B689B017FF59FAEFFF753
:10139000E5F8001B0228F6D9C5E600BF134908B5D9
:1013A0008B6803F00C03042B03D0082B03D01048E8
:1013B00008BD104808BD4A684B68496813F48003AB
:1013C00014BF0C480A48C1F3881118BF002302F06B
:1013D0003F02A1FB0001FEF713FF044B5B68C3F360
:1013E000014301335B00B0FBF3F008BD003802405D
:1013F0000024F40000127A002DE9F0410D46044665
:1014000010B90120BDE8F081444B1A6802F00F02C8
:101410008A4228D321688F072DD4C80740D43F4B78
:101420001A6802F00F02954266D3226851076CD405
:10143000130707D53A4A2169936823F4604343EAC6
:10144000C1039360FFF7AAFF354B364A9B68C3F38D
:101450000313D35CD840344B186000200AF03EF9E7
:101460000020BDE8F081CAB21A701B6803F00F03B8
:101470009942C6D1CEE72A4B11F0040F1EBF9A68DD
:1014800042F4E0529A600E0742BF9A6842F460420A
:101490009A609A68A06822F0F00202439A60BCE762
:1014A00062681F4B012A1DD11B6813F4003FA8D0AE
:1014B0001B4EB36823F003031343B360FFF74EF8EA
:1014C00041F288380746B368626803F00C03B3EB57
:1014D000820FA4D0FFF742F8C01B4045F3D9032088
:1014E000BDE8F081911E01291B6802D813F0007F2E
:1014F000DDE713F0020FDAE7EAB21A701B6803F0B7
:101500000F039D427FF47DAF8FE70549E0688B684C
:1015100023F4E05303438B608AE700BF003C0240A2
:1015200000380240B0E0000810000020014B1868AD
:10153000704700BF10000020044B054A9B68C3F3AE
:101540008223D35C034A1068D840704700380240B9
:10155000C0E0000810000020044B054A9B68C3F35C
:101560004233D35C034A1068D840704700380240C9
:10157000C0E00008100000200F2303600B4B9A68A6
:1015800002F0030242609A6802F0F00282609A68F8
:1015900002F4E052C2609B68DB0803F4E05303618D
:1015A000034B1B6803F00F030B60704700380240C9
:1015B000003C024070470368DA6842F00102DA60DA
:1015C0009A6802F00702062A1EBF1A6842F001025A
:1015D0001A60002070477047704770477047036873
:1015E0001A69910710B504460ED5DA6892070BD533
:1015F0006FF002021A619B6901229B07027777D084
:10160000FFF7EAFF0023237723681A69500710D5F4
:10161000DA6851070DD56FF004021A619B69022246
:1016200013F4407F2277204668D0FFF7D5FF0023D0
:10163000237723681A6912070FD5DA6810070CD5CB
:101640006FF008021A61DB690422990722772046AD
:101650005AD0FFF7C1FF0023237723681A69D20607
:1016600010D5DA68D0060DD56FF010021A61DB696B
:10167000082213F4407F227720464BD0FFF7ACFFBF
:101680000023237723681A69D10708D5DA68D207BF
:1016900005D56FF001021A61204609F0C7FF2368E3
:1016A0001A69100608D5DA68110605D56FF08002B0
:1016B0001A61204600F0B7F823681A69520608D567
:1016C000DA68500605D56FF040021A612046FFF730
:1016D00085FF23681A69910622D5DA6892061FD51C
:1016E0006FF0200220461A61BDE8104000F09AB861
:1016F000FFF771FF2046FFF770FF83E7FFF76BFFEF
:101700002046FFF76AFF92E7FFF765FF2046FFF7E5
:1017100064FFA0E7FFF75FFF2046FFF75EFFAFE73C
:1017200010BD0000304A0368904212D0B0F1804FE3
:101730000FD0A2F57C4290420BD002F5806290421D
:1017400007D002F58062904203D002F578429042C1
:1017500019D14A6823F070031343234A904229D0D9
:10176000B0F1804F26D0A2F57C42904222D002F503
:10177000806290421ED002F5806290421AD002F53B
:101780007842904216D0194A904213D002F58062F6
:1017900090420FD002F5806290420BD0A2F59832B1
:1017A000904207D002F58062904203D002F5806239
:1017B000904203D1CA6823F4407313434A6923F06B
:1017C0008003134303608B68C3620B688362064B1C
:1017D000984203D003F58063984201D10B690363FB
:1017E00001234361704700BF0000014000400140F9
:1017F00010B50446A0B190F83D3003F0FF021BB9CC
:1018000080F83C20FFF7D6FE022384F83D302068A4
:10181000211DFFF787FF012384F83D30002010BD14
:10182000012010BD704770472DE9F0470668C26877
:101830003369C16923F44053134333610446836819
:101840000069F2680343606922F41642034322F000
:101850000C020B431343F3607369A26923F44073D2
:101860001343B1F5004F73617A4B7CD19E4203D094
:1018700003F580639E4244D1FFF76EFE192505FBF8
:1018800000F360684FF064094000B3FBF0F3B3FB72
:10189000F9F34FEA0318FFF75FFE636868435B00E4
:1018A000B0FBF3F7FFF758FE636868435B00B0FBDB
:1018B000F3F3B3FBF9F309FB1373DB003233B3FB30
:1018C000F9F35B0003F4F877FFF746FE62686843BC
:1018D0005200B0FBF2FAFFF73FFE636868435B001B
:1018E000B0FBF3F3B3FBF9F309FB13A3DB003233D3
:1018F000B3FBF9F303F0070343443B44B360BDE893
:10190000F087FFF719FE192505FB00F360684FF01B
:1019100064094000B3FBF0F3B3FBF9F34FEA03189B
:10192000FFF70AFE636868435B00B0FBF3F7FFF75D
:1019300003FE636868435B00B0FBF3F3B3FBF9F3AA
:1019400009FB1373DB003233B3FBF9F35B0003F4E1
:10195000F877FFF7F1FD626868435200B0FBF2FAD6
:10196000FFF7EAFDB9E79E4202D03B4B9E4240D1D1
:10197000FFF7F2FD676819254FF0640905FB00F3D6
:10198000BF00B3FBF7F3B3FBF9F31F01FFF7E4FD6F
:10199000636868439B00B0FBF3F8FFF7DDFD636805
:1019A00068439B00B0FBF3F3B3FBF9F309FB13832C
:1019B0001B013233B3FBF9F303F0F008FFF7CCFD62
:1019C000626868439200B0FBF2FAFFF7C5FD6368F6
:1019D00068439B00B0FBF3F3B3FBF9F309FB13A3DC
:1019E0001B013233B3FBF9F303F00F0343EA08039F
:1019F00083E7FFF7A1FD676819254FF0640905FB30
:101A000000F3BF00B3FBF7F3B3FBF9F31F01FFF7DC
:101A100093FD636868439B00B0FBF3F8FFF78CFD10
:101A2000636868439B00B0FBF3F3B3FBF9F309FB76
:101A300013831B013233B3FBF9F303F0F008FFF714
:101A40007BFD626868439200B0FBF2FAFFF774FD19
:101A5000BDE700BF001001400014014010B504466E
:101A600040B390F8393003F0FF021BB980F83820FA
:101A700009F0E8FF2268242384F83930D36823F47E
:101A80000053D3602046FFF7CFFE23681A6922F483
:101A900090421A615A6922F02A025A61DA6842F4C5
:101AA0000052DA6000202023E06384F8393084F8A3
:101AB0003A3010BD012010BD0A4B013B01D103207B
:101AC00070470269002AF8DA0369064A43F0010305
:101AD0000361013AF3D0036913F00103F9D1184609
:101AE000704700BF410D030084B038B505AD85E8EF
:101AF0000E000A9B012B044625D1836B23F480330F
:101B00008363C36823F4840323F04003C360C36882
:101B100023F44013C360119B012B02BFC36843F43D
:101B20008013C360FFF7C8FF089B012B07D1A36890
:101B300043F00603A360A36843F02003A360BDE85D
:101B4000384004B07047C36843F04003C360FFF7F8
:101B5000B3FF0E9B23B9A36B43F48033A363E3E786
:101B6000A36B23F48033F9E7836823F001038360D8
:101B70000020704708B5C368012923F0C043C36043
:101B800008D1C36843F00053C3603220FEF7ECFC79
:101B9000002008BD19B9C36843F08043F4E7012071
:101BA00008BD0000890141F02001064A0161013AA7
:101BB00005D0036913F02003F9D1184670470320BC
:101BC000704700BF410D03001023064A0361013A2C
:101BD00005D0036913F01003F9D1184670470320AC
:101BE000704700BF410D0300D0F800381943C0F81A
:101BF000001800207047000084B02DE9F04704462B
:101C000009A880E80E0000230C9F139E8846194601
:101C100003F1400204EB820201330F2B5160F7D134
:101C2000002E73D1A36B43F40013A363A36B23F4BF
:101C30000023A363A36B23F48023A3630023C4F8CE
:101C4000003ED4F80038C4F800380E9B012B04F590
:101C5000006565D10B99002960D12046FFF7C4FFCC
:101C600010212046FFF79EFF01462046FFF7ACFFFC
:101C7000002857D1081C18BF012000232B6104F550
:101C800010626B611946EB614FF0904E4FF0006CA3
:101C90004FF67F39434547D1002104F530628E4627
:101CA0004FF0904C4FF000684FF67F398B424ED189
:101CB0002B69012F23F480732B6107D12E4B2B63EB
:101CC0002B6B43F4803343F003032B630023A361A6
:101CD0006FF0804363611FB9A36943F01003A361F0
:101CE000A269264B1343A3610F9B1BB1A36943F069
:101CF0000803A361012E01BFA36943F0804343F0B1
:101D00000403A361BDE8F04704B07047236823F4DF
:101D100000132360A36B43F400238EE719469CE76E
:101D200003219AE70120A8E7D2F800A0BAF1000F3A
:101D30000BDA3BB9C2F800C011610133C2F8089058
:101D40002032A7E7C2F800E0F6E71160F4E7D2F826
:101D500000A0BAF1000F0CDA41B9C2F80080C2F855
:101D600010E00131C2F8089020329FE7C2F800C0AD
:101D7000F5E7C2F800E0F2E70001800000383C809F
:101D800008B5D0F8043843F00203C0F80438032043
:101D9000FEF7EAFB002008BD08B501F08FFA00202D
:101DA00008BDEFF305830BB101F0CCBA01F0C4BA62
:101DB00070B5054646692A694068B5F908400B4682
:101DC00086B0296876B1AD6965B1842C14BF03343F
:101DD000002402958DE8500001F00CFA059005985A
:101DE00006B070BD842C14BF0334002405AD92B23C
:101DF0008DE8300001F035FA0128F0D00020EFE73F
:101E000008B5002808BF012001F078FB002008BDBC
:101E10004168012009B100F0EEBD00F0E1BD000015
:101E200013B500240194E0B1EFF30583A3B101AA37
:101E3000214600F0F5FF012802D0FF2002B010BDBE
:101E4000019B3BB1084B4FF080521A60BFF34F8F9C
:101E5000BFF36F8F0020F1E700F02AFF0128ECD1DB
:101E6000F8E78020EAE700BF04ED00E037B54468FA
:101E70000D466CB101291BD1032300220093284693
:101E80002346114600F08BFC0546284603B030BDC2
:101E900001290FD128460322214600F0C9FC05463E
:101EA0000028F2D023462246214600F0E5FCECE76C
:101EB0000025EAE72546E8E713B500240194E0B1E0
:101EC000EFF30583A3B101AA214600F0A9FF012881
:101ED00002D0FF2002B010BD019B3BB1084B4FF078
:101EE00080521A60BFF34F8FBFF36F8F0020F1E76E
:101EF00000F0DEFE0128ECD1F8E78020EAE700BF21
:101F000004ED00E013B500240194EFF3058393B1D1
:101F100001A900F0E0FD012813D1019B13B90020B5
:101F200002B010BD084B4FF080521A60BFF34F8FC4
:101F3000BFF36F8FF3E71A46194600F09DFC0128A6
:101F4000EDD0FF20ECE700BF04ED00E0FFF7DABFC3
:101F500007B582684AB1C3683BB10021009103C84C
:101F600000F01DFC03B05DF804FB03C8002203B0C1
:101F70005DF804EB00F05CBC1FB5002401910394F4
:101F8000A24208BF0122EFF30583ABB1234603AAA7
:101F900001A900F03EFD012802D0FF2004B010BDD1
:101FA000039B3BB1074B4FF080521A60BFF34F8F3A
:101FB000BFF36F8F0020F1E701A900F05DFC01285D
:101FC000EBD1F7E704ED00E0F0B585B0002604465C
:101FD000174608460391029601AD11B9802301937B
:101FE00017E00096EFF30583D3B16A4602A900F02B
:101FF00017FF012804BF10230193009B18BF01960F
:102000003BB10D4B4FF080521A60BFF34F8FBFF3BF
:102010006F8F95E8070084E80700204605B0F0BD03
:1020200002A900F0ADFD012801D11023D7E7002F50
:102030000CBF00234023D2E704ED00E0EFF305835B
:102040000BB100F050BF00F03BBF10B5EFF30584BB
:102050001CB900F069FF204610BD822010BDFFF7BB
:10206000F4BF00F1080343604FF0FF32C360036127
:102070000023826003607047002303617047436858
:102080004B609A688A609A68516099600368086139
:102090000133036070470A68531C30B50AD10369E5
:1020A0005A684A6091608B60596003680861013327
:1020B000036030BD00F108035C682568AA42EFD3D5
:1020C0002346F9E74168826803698A608268516043
:1020D0005968884208BF5A60002202611A68013AB2
:1020E0001A6018687047000082B0002301930D4BFE
:1020F0001B68013308D04FF0500383F31188BFF3FE
:102100006F8FBFF34F8FFEE74FF0500383F31188BB
:10211000BFF36F8FBFF34F8F019B002BFCD002B03A
:10212000704700BF0400002008480068006880F382
:1021300008884FF0000080F3148862B661B6BFF3E0
:102140004F8FBFF36F8F00DF00BF000008ED00E08E
:10215000DFF80C00016841F4700101607047000075
:1021600088ED00E04FF0807340F8043C074B40F8E6
:102170000C3C21F001016FF0020340F8081C40F80C
:10218000202C40F8243C4438704700BFE920000868
:10219000074B19680868B0E8F04F80F30988BFF36F
:1021A0006F8F4FF0000080F311887047AFF300800D
:1021B000B43C00204FF0500383F31188BFF36F8FBE
:1021C000BFF34F8F0A4A13680133012B13600DD1FF
:1021D000084B1B6813F0FF0F08D04FF0500383F338
:1021E0001188BFF36F8FBFF34F8FFEE7704700BFBB
:1021F0000400002004ED00E0084A136843B94FF0E2
:10220000500383F31188BFF36F8FBFF34F8FFEE747
:10221000013B13600BB983F3118870470400002061
:10222000EFF30980BFF36F8F154B1A681EF0100F84
:1022300008BF20ED108A20E9F04F10602DE9090059
:102240004FF0500080F31188BFF34F8FBFF36F8FB3
:1022500001F078F94FF0000080F3118809BC19688B
:102260000868B0E8F04F1EF0100F08BFB0EC108AFD
:1022700080F30988BFF36F8F704700BFAFF3008012
:10228000B43C002008B54FF0500383F31188BFF32E
:102290006F8FBFF34F8F01F05DF818B1034B4FF014
:1022A00080521A60002383F3118808BD04ED00E01A
:1022B000084A0949002313600B60084B4FF47A71F8
:1022C0001B68B3FBF1F30649013B0B600723136066
:1022D000704700BF10E000E018E000E010000020B0
:1022E00014E000E0394B3A4A13B51968914208D11D
:1022F0004FF0500383F31188BFF36F8FBFF34F8FFD
:10230000FEE71A68334B9A4208D14FF0500383F32B
:102310001188BFF36F8FBFF34F8FFEE72E4B1A78F4
:10232000D2B20192FF221A701B782C4ADBB28DF8D0
:1023300003309DF8033003F050031370284B07223D
:102340001A6000219DF80300000602F1FF340DD44D
:1023500001B11A601A68032A11D04FF0500383F3B9
:102360001188BFF36F8FBFF34F8FFEE79DF80320F7
:102370005200D2B28DF8032001212246E2E7120278
:1023800002F4E0621A60019B134ADBB21370154B32
:102390001A6842F470021A601A6842F070421A60B9
:1023A000FFF786FF104B00241C60FFF7D1FE0F4A99
:1023B000136843F040431360FFF7B6FE01F0C2F824
:1023C000FFF792FE204602B010BD00BF00ED00E016
:1023D00071C20F4170C20F4100E400E09400002080
:1023E0009800002020ED00E00400002034EF00E021
:1023F000EFF305830F2B0ED9104A9B5C104A12781D
:102400009A4208D94FF0500383F31188BFF36F8FBE
:10241000BFF34F8FFEE70B4B0B4A1B68126803F4A8
:10242000E063934208D94FF0500383F31188BFF360
:102430006F8FBFF34F8FFEE7704700BFF0E300E000
:10244000940000200CED00E09800002010B50F4B28
:102450001A68824218D35C681919884201BF416822
:10246000184609195960446801198A4207D1084978
:1024700009688A421FBF5168126809194160984271
:10248000026018BF186010BD1346E1E7AC3C0020A5
:102490009C0000202DE9F041044600F045FF3E4934
:1024A0003E4D0B680BBB3E4A56071FBFD01D20F0A8
:1024B000070002F570531B1A14BF02464FF4705305
:1024C0001344083B23F00703364E0B600020706076
:1024D000326058601860981A1360334B506018606F
:1024E000324B18604FF000432B602F68274216D103
:1024F000002C41D004F1080358071CBF23F0070348
:10250000083363B1294A1668B342904607D8254A72
:1025100015686868834204D809688D4207D1002491
:102520002AE02C68002CF7D02A462546F1E72968D6
:1025300014681160C21A102A0FD9E818410708D090
:102540004FF0500383F31188BFF36F8FBFF34F8FAA
:10255000FEE742606B60FFF779FF13496B6808681C
:10256000F61A1F4386424FF00003C8F8006038BFD8
:102570000E6008346F602B6000F058FF630708D0CE
:102580004FF0500383F31188BFF36F8FBFF34F8F6A
:10259000FEE72046BDE8F0819C000020A03C002022
:1025A000A0000020AC3C0020A83C0020A43C00205F
:1025B00010B5044670B3184A50F8043C1268134230
:1025C00008D14FF0500383F31188BFF36F8FBFF32F
:1025D0004F8FFEE750F8081C41B14FF0500383F3D2
:1025E0001188BFF36F8FBFF34F8FFEE723EA02031B
:1025F00040F8043C00F098FE084A54F8043C116886
:10260000A4F108000B441360FFF720FFBDE8104061
:1026100000F00CBF10BD00BFA03C0020A43C002077
:1026200010B50446FFF7C6FDA46BFFF7E5FDB4FA4D
:1026300084F0400910BD70B51546026C866B0446E7
:1026400042B905689DB9406801F0C4F8656001367B
:10265000A66370BD6DB9806809F0E7FAA368226CC3
:1026600013446268A360934201D32368A3600020EF
:10267000EDE7C06809F0D9FA236CE26821685B4293
:102680001A448A42E2603EBF62689B18E360022DF2
:10269000EDD10EB1013EEAE73046D8E7034610B46B
:1026A0001A6C084662B1D9685C681144A142D960CD
:1026B00024BF1968D960D9685DF8044B09F0B5BA30
:1026C0005DF8044B704770B50446FFF773FD94F84E
:1026D000455004F124066DB2002D14DCFF2384F86C
:1026E0004530FFF789FDFFF765FD94F8445004F18C
:1026F00010066DB2002D12DCFF2384F84430BDE8D3
:102700007040FFF779BD636A002BE7D0304600F0D8
:102710006DFF08B100F0F4FF013D6DB2DCE7236905
:10272000002BE9D0304600F061FF08B100F0E8FF6F
:10273000013D6DB2DEE738B50D46044640B94FF0B5
:10274000500383F31188BFF36F8FBFF34F8FFEE702
:10275000FFF730FD206CE36B2268A2604343D11881
:102760001B1A13446160E3600021FF23A16384F816
:10277000443084F845304DB923691BB104F1100091
:1027800000F034FFFFF738FD012038BD04F11000E0
:10279000FFF767FC04F12400FFF763FCF2E713B5D1
:1027A0001C4640B94FF0500383F31188BFF36F8F7D
:1027B000BFF34F8FFEE743B94FF0500383F3118807
:1027C000BFF36F8FBFF34F8FFEE74AB1D9B94FF018
:1027D000500383F31188BFF36F8FBFF34F8FFEE772
:1027E00089B14FF0500383F31188BFF36F8FBFF3AC
:1027F0004F8FFEE74FF0500383F31188BFF36F8FC5
:10280000BFF34F8FFEE748230193019B482BF1D183
:102810000123002908BF2246E063216484F8463082
:10282000226019462046FFF786FF204602B010BD01
:1028300070B50D46064640B94FF0500383F311883A
:10284000BFF36F8FBFF34F8FFEE748434830FFF76A
:1028500021FE044650B1002380F8463045B920607F
:10286000E663256401212046FFF765FF204670BD21
:1028700000F148030360F3E72DE9FF478946019221
:102880001F46044640B94FF0500383F31188BFF34D
:102890006F8FBFF34F8FFEE700297CD1036C002BB5
:1028A00079D04FF0500383F31188BFF36F8FBFF3DC
:1028B0004F8FFEE7019E002E77D04FF0500383F339
:1028C0001188BFF36F8FBFF34F8FFEE7019D1DB9D6
:1028D000FFF792FC00204FE016B902A800F0C8FEF6
:1028E000FFF78AFC00F020FDFFF764FC94F8443009
:1028F000FF2B08BF84F8448094F84530FF2B08BFB5
:1029000084F84580FFF778FC01A902A800F0BCFE1E
:1029100000283AD1FFF74EFCA66BE56BFFF76CFC85
:10292000AE422CD1019904F1100000F045FE204682
:10293000FFF7C9FE00F07AFD38B94FF08053CAF8AE
:102940000030BFF34F8FBFF36F8F0126FFF732FCCC
:10295000A26BE36B9A4201D3022FB7D13A464946A4
:102960002046FFF768FE636A1BB104F1240000F003
:102970003DFEFFF741FC012004B0BDE8F087204692
:10298000FFF7A1FE00F052FDDFE72046FFF79BFEB8
:1029900000F04CFD9EE7022F02D1E36B012B09D121
:1029A00000F0B4FE002885D000264FF00008DFF8C4
:1029B00018A0CBE74FF0500383F31188BFF36F8F5C
:1029C000BFF34F8FFEE700BF04ED00E038B10023F6
:1029D00043600360C3601A461946FFF74DBF704756
:1029E00010B5024600210120FFF722FF0446FFF741
:1029F000EDFF204610BD13B500220B460090114696
:102A00000120FFF7CCFE0446FFF7E0FF204602B0AE
:102A100010BD2DE9F843884691461F46044640B94B
:102A20004FF0500383F31188BFF36F8FBFF34F8FC5
:102A3000FEE709BB036CFBB14FF0500383F3118831
:102A4000BFF36F8FBFF34F8FFEE704F1240000F058
:102A5000CDFD002834D0B9F1000F31D00120C9F8E4
:102A6000000086F31188BDE8F88301356DB284F863
:102A7000455025E00020F4E7022F02D1E36B012B43
:102A800020D1FFF7B5FCEFF311864FF0500383F32D
:102A90001188BFF36F8FBFF34F8FA26BE36B9A4226
:102AA00001D3022FE6D194F845503A466DB2414623
:102AB0002046FFF7C0FD6B1CD7D1636A002BC4D141
:102AC0000120CEE74FF0500383F31188BFF36F8FDF
:102AD000BFF34F8FFEE770B50D46044640B94FF087
:102AE000500383F31188BFF36F8FBFF34F8FFEE75F
:102AF000036C43B14FF0500383F31188BFF36F8F22
:102B0000BFF34F8FFEE703680BB9436873BBFFF752
:102B10006FFCEFF311864FF0500383F31188BFF37E
:102B20006F8FBFF34F8FA26BE36B9A4201D30020EC
:102B300014E094F8453001325BB2A2635A1C10D104
:102B4000636A0BB9012009E004F1240000F04EFD96
:102B50000028F7D0002DF5D00120286086F31188D9
:102B600070BD01335BB284F84530EBE74FF05003A2
:102B700083F31188BFF36F8FBFF34F8FFEE7000021
:102B80002DE9F04385B088460192044640B94FF0E4
:102B9000500383F31188BFF36F8FBFF34F8FFEE7AE
:102BA00000297AD1036C002B77D04FF0500383F3C8
:102BB0001188BFF36F8FBFF34F8FFEE7019E002E8A
:102BC00070D04FF0500383F31188BFF36F8FBFF3C2
:102BD0004F8FFEE7019D1DB9FFF70EFB002048E077
:102BE00016B902A800F044FDFFF706FB00F09CFBBD
:102BF000FFF7E0FA94F84430FF2B08BF84F84470E4
:102C000094F84530FF2B08BF84F84570FFF7F4FABD
:102C100001A902A800F038FDA0BB2046FFF700FD87
:102C200050B3019904F1240000F0C6FC2046FFF7E0
:102C30004AFD00F0FBFB38B94FF08053C9F8003073
:102C4000BFF34F8FBFF36F8F0126FFF7B3FAA56B6A
:102C5000002DBFD041462046013DFFF71FFDA56373
:102C600023691BB104F1100000F0C0FCFFF7C4FAA7
:102C7000012005B0BDE8F0832046FFF724FD00F0F9
:102C8000D5FBE1E72046FFF71EFD00F0CFFB204615
:102C9000FFF7C6FC0028D7D0A0E700F037FD0028DA
:102CA0008CD000260027DFF80490CEE704ED00E08A
:102CB0002DE9FF410446019140B94FF0500383F3E1
:102CC0001188BFF36F8FBFF34F8FFEE7056C45B1DF
:102CD0004FF0500383F31188BFF36F8FBFF34F8F13
:102CE000FEE700F013FD18B9019D002D40F08C8027
:102CF000DFF828812E460027FFF75CFAA36B9BB113
:102D0000013BA363236813B900F00EFE60602369E2
:102D10001BB104F1100000F069FCFFF76DFA01250A
:102D2000284604B0BDE8F081019B63B945B14FF07E
:102D3000500383F31188BFF36F8FBFF34F8FFEE70C
:102D4000FFF75AFAECE716B902A800F091FCFFF77A
:102D500053FA00F0E9FAFFF72DFA94F84430FF2B0C
:102D600008BF84F8447094F84530FF2B08BF84F8FE
:102D70004570FFF741FA01A902A800F085FC40BBAD
:102D80002046FFF74DFCF0B123683BB9FFF712FA7C
:102D9000606800F0CBFC0546FFF72EFA019904F1BC
:102DA000240000F009FC2046FFF78DFC00F03EFBFC
:102DB00038B94FF08053C8F80030BFF34F8FBFF3DE
:102DC0006F8F012698E72046FFF77DFC00F02EFB71
:102DD000F7E72046FFF777FC00F028FB2046FFF7D7
:102DE0001FFC0028EDD0002D9AD0FFF7E3F9616AAF
:102DF00019B1236B1968C1F10701606800F03AFD51
:102E00000025FFF7F9F98BE74FF0500383F31188A2
:102E1000BFF36F8FBFF34F8FFEE700BF04ED00E0FD
:102E20002DE9F84389469046054640B94FF05003D6
:102E300083F31188BFF36F8FBFF34F8FFEE771BB32
:102E4000036C63B34FF0500383F31188BFF36F8FAC
:102E5000BFF34F8FFEE795F84460494676B22846A7
:102E6000FFF71CFC013C731CAC6313D12B690BB93D
:102E700001200BE005F1100000F0B8FB0028F7D0AE
:102E8000B8F1000FF4D00120C8F8000087F31188D2
:102E9000BDE8F883013676B285F84460E8E7FFF7CD
:102EA000A7FAEFF311874FF0500383F31188BFF3B4
:102EB0006F8FBFF34F8FAC6B002CCCD12046E5E772
:102EC00010B5044640B94FF0500383F31188BFF3A7
:102ED0006F8FBFF34F8FFEE7FFF76CF9A46BFFF71F
:102EE0008BF9204610BD40B94FF0500383F3118891
:102EF000BFF36F8FBFF34F8FFEE7806B704700000B
:102F000010B5084A002302EBC3014C68844204D187
:102F1000002042F83300486010BD0133082BF2D185
:102F200010BD00BF2C42002010B5044640B94FF040
:102F3000500383F31188BFF36F8FBFF34F8FFEE70A
:102F4000FFF7DEFF94F8463023B92046BDE8104075
:102F5000FFF72EBB10BD00002DE9F0410646FFF73C
:102F600029F9274B274C1A68274F01321A60256828
:102F7000002D39D126601B68012B1CD1781914351E
:102F8000FFF76FF88C2DF9D1DFF8A4801F4D404674
:102F9000FFF767F82846FFF764F81D48FFF761F868
:102FA0001C48FFF75EF81C48FFF75BF81B4BC3F8A3
:102FB00000801B4B1D601B4A1B49136808680133C6
:102FC0001360F26A01239340034314200B6000FB5B
:102FD0000270311DFFF753F8FFF70EF9134B1B6812
:102FE00003B12368BDE8F081104B1B68002BE2D1D0
:102FF0002368DA6AF36A9A4298BF2660DBE700BF6B
:103000004C3D0020B43C0020C03C0020783D002016
:10301000943D0020C03D0020AC3D0020B83C002085
:10302000BC3C00205C3D0020603D0020A83D00200D
:10303000643D0020064A13681968064B19B94FF021
:10304000FF321A6070471268D268D2685268F8E797
:10305000B83C00208C3D00202DE9F0470A9CDDF8AB
:103060002480266B02F18042013A06EB82069A46E2
:1030700081464B1E26F0070604F134020F315878C2
:1030800002F8010B13F8010F08B18B42F7D1089D2C
:10309000062D28BF06250027E5626564201D84F8FB
:1030A0004370A764FEF7E8FFC5F1070504F11800B7
:1030B000FEF7E2FFE7642461A561646284F8507062
:1030C000524649463046FFF74DF82060B8F1000FF0
:1030D00001D0C8F80040BDE8F08710B590F8513035
:1030E00004463BB9006BFFF763FA2046BDE8104089
:1030F000FFF75EBA012BF9D0022B08D04FF0500336
:1031000083F31188BFF36F8FBFF34F8FFEE710BDBE
:1031100080B5DFF85080104F104C114D236843B933
:103120004FF08053C8F80030BFF34F8FBFF36F8F5D
:10313000F2E7FFF73FF8FB68DE68301DFEF7C2FFDD
:103140002B68013B2B602368013B2360FFF754F899
:103150003046FFF7C2FFE1E7C03D0020503D0020B0
:103160004C3D002004ED00E0F8B51B4B1B4E1D68E4
:103170000446306804300F46FEF7A4FF334640B9DA
:103180003168174EC96A32680120884022EA00027D
:103190003260621C07D137B1196812480431BDE8AA
:1031A000F840FEF76CBF2C441A68A542546007D95A
:1031B0000D4A10681968BDE8F8400431FEF76BBF8E
:1031C0000A4A106819680431FEF765FF084B1A684F
:1031D000944238BF1C60F8BDD43D0020B43C0020B0
:1031E000603D0020AC3D0020BC3C0020B83C0020ED
:1031F0008C3D002070B586B00B9D0C9C45B94FF0FE
:10320000500383F31188BFF36F8FBFF34F8FFEE737
:1032100044B94FF0500383F31188BFF36F8FBFF3AE
:103220004F8FFEE754260496049E542E08D04FF08C
:10323000500383F31188BFF36F8FBFF34F8FFEE707
:103240002563022584F8515005AD01950A9D02942D
:103250000095FFF701FF2046FFF77EFE059806B0B8
:1032600070BD2DE9F043074685B0900088461646AC
:103270009946FFF70FF90546E8B15420FFF70AF920
:103280000446A8B1002380F851300D9B05630193DB
:103290000C9B0290009332464B4641463846FFF75E
:1032A000DBFE2046FFF758FE012005B0BDE8F083A5
:1032B0002846FFF77DF94FF0FF30F6E710B588B0EC
:1032C000002407AA06A905A80594069408F034F876
:1032D000059B0293069B019300942346079A0D4990
:1032E0000D48FFF787FF90B14FF0500383F311882B
:1032F000BFF36F8FBFF34F8F084B4FF0FF321A6051
:10330000074B01221A60074B1C60FEF7EBFF08B069
:1033100010BD00BF84C00008113100088C3D0020A2
:10332000A83D0020D43D0020024A136801331360F9
:10333000704700BF583D0020014B1868704700BF20
:10334000D43D002008B5FFF753F8014B186808BDBD
:10335000D43D00202C4B1B682DE9F047002B2CD1CD
:103360002A4B1C6801341C60BCB9294B1A681268CE
:1033700042B14FF0500383F31188BFF36F8FBFF357
:103380004F8FFEE7234A1968106818601160224ABF
:10339000136801331360FFF74DFE204D2B689C42EC
:1033A0000FD31B4FDFF87C80DFF87CA03B681B68E5
:1033B00053B94FF0FF332B6003E0194A1368013310
:1033C00013600020BDE8F0873B68DB68DE68736847
:1033D0009C42F0D306F104094846FEF773FEB36A37
:1033E0001BB106F11800FEF76DFEF26AD8F8001066
:1033F0000123934014200B4300FB02A04946C8F868
:103400000030FEF73CFED1E7583D0020D43D0020BF
:10341000B83C0020BC3C0020903D00208C3D0020AA
:10342000543D0020603D0020C03C00202DE9F843C1
:103430002A4C236843B94FF0500383F31188BFF33C
:103440006F8FBFF34F8FFEE7FEF7B4FE2368013B9B
:1034500023602468DCB9224B1B68C3B1DFF8949069
:10346000204FDFF89480D9F80030ABB90CB1FFF7EA
:10347000E1FD1D4D2C6844B11C4E0127FFF76AFF8A
:1034800000B13760013CF9D12C60184B1B68FEF786
:10349000B3FE0020BDE8F883D9F80C30DC68261DA7
:1034A00004F11800FEF70EFE3046FEF70BFEE26A4E
:1034B0003968012505FA02F314200B4300FB028052
:1034C00031463B60FEF7DBFD094BE26A1B68DB6AB5
:1034D0009A4224BF054B1D60C5E700BF583D002040
:1034E0004C3D0020603D0020543D0020D83D002090
:1034F000B43C0020943D0020C03C002008B540B9F9
:103500000E4B4FF080521A60BFF34F8FBFF36F8F97
:1035100008BD0B4B196841B14FF0500383F311887C
:10352000BFF36F8FBFF34F8FFEE7FFF7FDFEFFF78F
:103530001BFEFFF77BFF0028E2D008BD04ED00E092
:10354000583D0020174B1A68174B10B512B10122D5
:103550001A6010BD1A60154B1B68B3FA83F3DBB217
:10356000C3F11F03142212495A4388188C5844B9D6
:103570004FF0500383F31188BFF36F8FBFF34F8F6A
:10358000FEE744680832646844600A44944204BF19
:1035900062684260142202FB03135B68DA68054B21
:1035A000D6E700BF583D0020D83D0020603D0020F8
:1035B000C03C0020B43C002010B50C4640B94FF090
:1035C000500383F31188BFF36F8FBFF34F8FFEE774
:1035D000054B19681831FEF75EFD20460121BDE854
:1035E0001040FFF7C1BD00BFB43C002038B5C36830
:1035F000DC6844B94FF0500383F31188BFF36F8F39
:10360000BFF34F8FFEE704F118052846FEF75AFD79
:10361000114B1B68E3B9251D2846FEF753FD0F49E2
:10362000E26A08680123934003430B600C4B1420AB
:10363000294600FB0230FEF722FD0A4BE26A1B68B6
:10364000DB6A9A4283BF084B01201860002038BD16
:1036500029460648EFE700BF583D0020603D0020A6
:10366000C03C0020B43C0020D83D0020943D002008
:10367000034B1B680360034B1B684360704700BF2C
:10368000903D0020D43D002070B50C46054640B961
:103690004FF0500383F31188BFF36F8FBFF34F8F49
:1036A000FEE741B94FF0500383F31188BFF36F8FEA
:1036B000BFF34F8FFEE7FEF77DFD0F4B69681A6879
:1036C0002368581C0ED00D482E680068864201D031
:1036D0008A420ED2521A9A4209D29B1A2360284675
:1036E000FFF7C6FF0024FEF787FD204670BD0023CC
:1036F00023600124F7E700BFD43D0020903D002067
:10370000014B01221A607047D83D0020054B1B6811
:1037100033B1054B1B68002B0CBF02200020704703
:1037200001207047A83D0020583D00202DE9F041C0
:103730000446002841D0244AC36A1168C96A8B42F2
:10374000174631D28269214D002AA1BF3A68D26A58
:10375000C2F1070282611426426906FB03539A42B2
:103760002DD100F104084046FEF7ACFC184B48B9D7
:10377000E06A4643AA592AB91A680121814022EA1F
:1037800001021A603A681968D26AE262012404FAF6
:1037900002F0084318601420414600FB0250FEF777
:1037A0006EFC0120BDE8F0811368406CDC6AA04229
:1037B0002CBF00200120BDE8F081BDE8F0813B680E
:1037C000DB6AC362EDE700BFB43C0020C03C0020D0
:1037D000603D0020F8B5044608B90020F8BD224B32
:1037E0001B68984208D04FF0500383F31188BFF351
:1037F0006F8FBFF34F8FFEE7836C43B94FF05003D9
:1038000083F31188BFF36F8FBFF34F8FFEE7C16A59
:10381000426C013B91428364DFD0002BDDD1051D5A
:103820002846FEF74FFC114E114A50B9E76A1421A1
:10383000794373582BB913680120B84023EA000379
:103840001360636CE362C3F10701A1611168012495
:1038500004FA03F008431060142000FB03602946BB
:10386000FEF70DFC2046F8BDB43C0020C03C002013
:10387000603D0020F8B5044600284DD0826C42B966
:103880004FF0500383F31188BFF36F8FBFF34F8F57
:10389000FEE7436C994238BF1946C36A8B423BD05E
:1038A000012A39D11D4A1268904208D14FF05003C5
:1038B00083F31188BFF36F8FBFF34F8FFEE78269E9
:1038C000174DC162002A4FF014064269A8BFC1F12A
:1038D000070106FB0353A8BF81619A421CD1071D53
:1038E0003846FEF7EFFBE26A0E4C40B95643AB593F
:1038F0002BB923680121914023EA01032360216849
:10390000012393400B4314202360394600FB0250EF
:10391000BDE8F840FEF7B3BBF8BD00BFB43C0020E3
:10392000C03C0020603D0020044B1A681AB11968A1
:103930008A6C01328A641868704700BFB43C00206A
:103940000A6810B50C320C4601F076FB08B994F900
:10395000040010BD70B50D4686B0114600F096FD0E
:10396000044600283FD006A98DF80C5041F8140DEC
:103970001E48FFF7E5FF002835D063682BB11C4BCC
:103980001C491D48892207F0E8FF04F1100528466C
:1039900007F0D9F928B9164B184917488A2207F0B9
:1039A000DCFF04F1140007F0CEF928B1104B1449E4
:1039B00011488C2207F0D1FF04F10C06304607F0C5
:1039C00003FA28B90A4B0F490B488F2207F0C5FFAD
:1039D000304607F0F6F9284607F062F9214607203D
:1039E00003F072F80024204606B070BD0D440008B4
:1039F00089C000083EC10008D7C000085FC10008A8
:103A000074C1000895C1000830B5044687B078B18C
:103A10000190292301A907488DF80D30FFF790FF89
:103A2000054610B9204600F077FD284607B030BDA6
:103A30000546FAE7314600087FB558B90C4B0D49E9
:103A40000D4840F22B1207F088FF6FF00F0007B00F
:103A50005DF804FB094B0190002908BF194603914A
:103A60000748ADF8102001A9FFF76AFFEFE700BF94
:103A700089C00008FFC00008D7C0000850CB00086C
:103A8000614700087FB558B9094B0A490A4840F216
:103A90004B1207F062FF6FF00F0007B05DF804FBF8
:103AA00006A941F8140D0548FFF74AFFF5E700BFE6
:103AB00089C000081DC10008D7C00008514800088F
:103AC0007FB558B9094B0A490A4840F2C32207F0AA
:103AD00044FF6FF00F0007B05DF804FB0190039105
:103AE000054801A9FFF72CFFF5E700BF89C00008D2
:103AF000AEC10008D7C000088F48000870B586B076
:103B000015460A9C50B91D4B1D491E4840F2E6223D
:103B100007F023FF6FF00F0006B070BD027802F0CF
:103B2000F002102A09D0154B1749164840F2E72237
:103B300007F013FF6FF00500EEE70DB90020EBE78B
:103B4000027F920713D4C3F380068EB901900391CC
:103B50000E488DF8143001A90495FFF7F1FE0028F6
:103B6000DAD1002CEAD036B1049B2360D4E70126D9
:103B7000002CEBD1DEE72560CEE700BF89C000084E
:103B8000C9C10008D7C00008E5C10008F548000811
:103B90002DE9F047064617461D46BDF820900C4615
:103BA00029B9224B22492348B12207F0D6FE8EB90B
:103BB0001E4B21491F48B22207F0CFFE3846BDE810
:103BC000F04703F007B9B36A73B32A463046BDE83D
:103BD000F047184773689C4205D0144B17491548A5
:103BE000BA2207F0BAFE06F11008404607F0ABF81B
:103BF0000028E3D0062002F04BFF04460028DDD069
:103C00000760476005B12D68A5602146A4F80C90B7
:103C100040463D8907F05AF801460028D3D0204697
:103C2000BDE8F04700F0E8BEBDE8F0876AC50008CF
:103C30009CC50008D7C00008BEC50008DDC5000847
:103C400010B544680146204603F0A2FC204609490D
:103C500003F0A2FC2046084903F0B6FC20460749C1
:103C6000022203F0E5FC20460549BDE8104003F0C0
:103C7000C1BC00BFDD420008A14300086542000846
:103C8000853C00082DE9F0410E46044630B9414B11
:103C9000414942484FF4C27207F05FFE6578002741
:103CA000042D6760677062D107F0D0F894F908308E
:103CB0000C33A8BF277207F0D5F80026A36A1BB102
:103CC0000022042120469847A36A1BB10022114616
:103CD00020469847A36A1BB100220221204698473C
:103CE00004F11007384607F02EF818B100213846C5
:103CF00006F0ECFF04F11407384607F024F818B179
:103D00000021384606F0E2FF012D02D0033D012DCF
:103D100033D8237F23F004025B07227738D4636A09
:103D200033B91C4B1E491D4840F2B31207F015FE73
:103D3000636A1D681E710C35284607F045F830B9D6
:103D4000144B184915484FF4DB7207F006FE0023A8
:103D5000636207F07BF894F908300C33A8BF267231
:103D600007F080F82846BDE8F04107F027B807F0D3
:103D70006DF8267207F076F8A0E7636A43B1054B49
:103D80000949064840F2BD12BDE8F04107F0E5BD23
:103D9000BDE8F0816AC5000807C20008D7C0000866
:103DA00014C200082EC2000847C20008F8B5164623
:103DB000044600284DD04378032B06D0264B2749D4
:103DC00027484FF4936207F0C8FD636A4BB9237F1D
:103DD0005B0706D4204B2349214840F29A4207F062
:103DE000BCFD656A15B12E712D680C35237803F082
:103DF000F003102B03D116B92046FFF721FF207FD7
:103E000020F0040310F00406237708D14DB9124BBB
:103E10001549134840F2A74207F09FFD01E0002D2D
:103E2000F5D100276762677007F010F894F9083041
:103E30000C33A8BF277207F015F8A36A1BB1002244
:103E400002212046984716B9284606F0B7FF002001
:103E5000F8BD6FF00500F8BD6AC50008EEC20008A5
:103E6000D7C000080DC300084AC300082DE9F84375
:103E70000F46044630B9744B7449754840F2E3521A
:103E800007F06BFD6378012B06D06F4B71497048CA
:103E900040F2E45207F061FD636A33B96A4B6E4940
:103EA0006B4840F2E55207F058FD636833B9664B42
:103EB0006A49674840F2E65207F04FFD636A226A9A
:103EC000DB689A4206D3604B654961484FF4BD6296
:103ED00007F043FD636A227F99681E7C9007226A7F
:103EE000606801EB0209D968B0F86050A1EB0203E9
:103EF00054BFC6F380084FF00108B3F5803F2ABFD6
:103F00004FF6FF739BB246F00206AB425FD9B8F1A1
:103F1000000F59D0002D5CD02A44914206D24A4B62
:103F200050494B4840F2136207F017FD33462A46CA
:103F30004946606805F0C0FC431CDBB2012B064615
:103F400069D8B8F1000F47D0636ADB689D4243D25D
:103F5000A36A1BB12A46032120469847237F43F0DA
:103F600010032377002E4BD1236A1D44636A256218
:103F7000DA68954202D0B8F1000F3FD0DD6001252C
:103F8000606806F01FF810F10C0F01DB011D53D122
:103F9000636A0022DA600646636A1D681E710C358A
:103FA000002363622362637006F050FF94F90830C7
:103FB0000C33A8BF267206F055FF17B1284606F04D
:103FC000FDFE0020BDE8F88346F00206A4E71D468A
:103FD000A2E76FF00606B7E76368B3F86020B2F5B2
:103FE000866F03D3B3F86230042BBBD9A36A002BCE
:103FF000B8D02A46032120469847B3E73546BFE7A5
:10400000721C08D1606805F0DDFF10F10C0F064648
:1040100001DB031D03D1636A0022DA60BCE7B8F15B
:10402000000F03D14FF0FF30BDE8F883636A002230
:10403000DA606FF00606AFE7002DF3D0626A15680C
:1040400000230C351371ACE76AC5000807C20008ED
:10405000D7C00008B1C3000814C20008CEC30008CE
:10406000E4C3000816C400082DE9F84F8A46044648
:1040700030B9714B7149724840F2433207F06DFC20
:10408000237803F0F003102B06D06B4B6D496C487E
:104090004FF4517207F061FC6378042B06D0664B35
:1040A0006949674840F2453207F057FC636833B905
:1040B000614B6649624840F2463207F04EFC636A43
:1040C00033B95D4B62495E4840F2473207F045FC28
:1040D000636A65681B7A032B03F0010903F0020889
:1040E00000F08480B9F1000F05D02B7D5A1F012A02
:1040F0007CD9082B7AD0B8F1000F11D0AF7E17F021
:10410000100773D12B7D012B0CD10021284603F021
:1041100089FA27BB42464946284603F03BFE21E088
:104120004746EFE7B9F1000F07D00021284603F01A
:1041300033FA0021284603F075FAB8F1000F03D0D6
:104140000021284603F040FA002FE3D00022114658
:10415000284603F06DFA0021284603F04BFA284662
:1041600003F076FD064660B1431C0AD1636A93F8FA
:1041700009B0BBF1000F3FD11FB1284603F0A6FEE6
:104180005E46636A1D681E71002363626370CEB968
:1041900037B1A36A66601BB13246042120469847B6
:1041A000B9F1000F05D0A36A63B100221146204681
:1041B0009847B8F1000F05D0A36A1BB10022022175
:1041C0002046984706F042FE94F908300C33A8BF09
:1041D000267206F047FEBAF1000F03D005F10C007D
:1041E00006F0ECFD00263046BDE8F88F0021284699
:1041F00003F0CEF9012785E72B7D012B06D10E4B6D
:1042000014490F4840F2E33207F0A7FBB8F1000F62
:1042100003D01149284603F0D7F9012228460F4957
:1042200003F006FA28460E4903F0E4F92146284631
:1042300003F0AEF9D7E700BF6AC50008BCC10008AB
:10424000D7C0000861C200087FC20008A3C20008EE
:1042500014C20008B6C20008A14300086542000865
:10426000853C000810B5044630B9194B19491A4865
:104270004FF49C7207F071FB617801291BD1204635
:10428000FFF7F4FD237FDA0613D562688AB1B2F82E
:104290006010B1F5866F0CD3B2F86220042A08D8FA
:1042A00023F010032377A36A1BB1002202212046CA
:1042B0009847002010BD0429E4D1626A1AB1537AEC
:1042C0000BB1013B537201212046FFF7CDFED9E728
:1042D0006AC5000807C20008D7C000082DE9F843E6
:1042E0000546164698460F4629B9284B28492948BD
:1042F000F92207F032FB9DBB244B27492548FA22BF
:1043000007F02BFB6FF005042046BDE8F883384624
:10431000318903F0D3F8304602F05CFDF4E7B8F1E0
:10432000000F09D006F092FD95F908300C33A8BFB4
:1043300085F8088006F096FD6EB13789314648460B
:1043400006F0C4FC044640B9AB6AEBB101463A46FC
:1043500028469847D8E73746F0E74FF0FF34D3E7D1
:104360006B689F4206D0094B0C490A484FF4807293
:1043700007F0F3FA05F11009484606F0E4FC04469C
:104380000028CCD1002EC2D10024BDE76AC50008A8
:104390000BC50008D7C000082DC500084CC5000893
:1043A00038B51546044670B9154B1649164840F203
:1043B000611207F0D2FA002038BD042908D101218A
:1043C000FFF752FE04E041780129F6D1FFF74EFDD8
:1043D0006368002BEFD0B3F86020B2F5866FEAD3A4
:1043E000B3F86230042BE6D8237F23F01003237741
:1043F000A36A002BDFD02A46022120469847DAE73D
:104400006AC5000807C20008D7C0000838B50023F5
:10441000056803710446686828BB2B7803F0F00335
:10442000102B14D0202B1CD106F08CFB6860226866
:10443000506850B113781449222B04BF0123037430
:1044400006F056FB23685B686BB9FF230AE003F0B4
:1044500007FE686020684368002BF6D0FFF7F0FB8A
:10446000F0E7FA232371236863B106F0EFFC2368B9
:1044700093F908200C32A4BF22791A72BDE83840A3
:1044800006F0F0BC38BD00BF913B0008F8B505460A
:1044900007200F4602F0FCFA0446A8B3057005F0A9
:1044A000F0050023102D037243600ED0202D0CD098
:1044B000164B174917484FF42A7207F04EFA214657
:1044C000072002F001FB00241EE004F11006062183
:1044D000304606F0D3FB01460028F0D104F10C0071
:1044E00006F039FC054618B1304606F0D9FBE6E780
:1044F00004F1140006F02CFC4FF0FF336570A3614B
:10450000A7626562256225772046F8BD6AC5000866
:1045100041C40008D7C0000838B54368044633B129
:10452000164B174917484FF4387207F016FA04F182
:10453000100006F008FC30B1104B1349114840F24E
:10454000E22207F00AFA04F1140006F0FCFB30B195
:104550000A4B0E490B4840F2E52207F0FEF904F140
:104560000C05284606F02DFC284606F032FC2146B4
:104570000720BDE8384002F0A7BA00BF6AC50008AE
:1045800067C40008D7C0000895C40008CFC400085D
:1045900073B500F110050446284606F0D4FBB0B907
:1045A0001434204606F0CFFB00283DD102B070BD88
:1045B000237803F0F003102B16D1019E3EB1606802
:1045C00010B1318902F07AFF304602F003FC01A9F4
:1045D000284606F0A7FB0130EAD1284606F060FB2A
:1045E000284606F0B5FBDBE7019800F005FAEEE798
:1045F000019DB5420BD02846FFF7CAFF686818B185
:1046000003F064FC00236B602846FFF785FF01A9D7
:10461000204606F087FB0130EAD1204606F040FB39
:10462000204606F095FBC1E7004EF0E76C42002003
:10463000036870B55D7804466DB11B7803F0F00334
:10464000102B06D0404B4149414840F2014207F04F
:1046500084F9022D21D1002520682571FFF798FFEC
:104660002368586860B11A7802F0F002102A32D03C
:10467000202A02D1C56106F03FFA236800225A6061
:104680002068836A13B10022114698472068836A24
:104690005BB100220221984707E0032D03D1236874
:1046A0001B7F5B07D7D4FB23237120680C3006F0F7
:1046B0008BFB002846D02368002B43D006F0C6FBB6
:1046C000236893F908200C32A4BF22791A72BDE83E
:1046D000704006F0C7BB5A6A0AB91B6A33B11A4B5D
:1046E0001C491B4840F2354207F037F92068042383
:1046F00043700323237200214462FFF7B5FC08B323
:1047000023685B78042B06D00F4B1349104840F206
:104710003B4207F022F9114806F07EFB2068002199
:104720000C3006F030FB0D4806F071FB23685B7817
:1047300043B1054B0849064840F23F42BDE870408E
:1047400007F00BB970BD00BF6AC5000867C3000859
:10475000D7C000087BC3000896C300087042002041
:1047600070B503680446586810B9F12323710BE053
:104770001A7802F0F002102A16D0202A51D1A2890C
:10478000A16806F085F920712368002B52D006F04D
:104790005DFB236893F908200C32A4BF22791A72BA
:1047A000BDE8704006F05EBB5A78032A01D1F723BA
:1047B000DCE70AB1F623D9E71846FFF741FA20688B
:1047C0001D4BA289A168406803F06AFC2071002893
:1047D000DAD12268137F032113F00205517004D04F
:1047E00043F004031377FB23C0E723F0040313779C
:1047F0005462124806F010FB206829460C3006F07F
:10480000C2FA0E4806F003FB23685B78032B11D134
:104810000B4B0C490C4840F2E942BDE8704007F0F0
:104820009CB8074B0949084840F2F24207F095F856
:10483000FA239BE770BD00BFAD3D00087042002029
:104840006AC5000896C30008D7C00008D9C200088E
:104850000268137803F0F003202B10B5044613D13F
:10486000506806F03DF900232371236873B106F008
:10487000EDFA236893F908200C32A4BF22791A724A
:10488000BDE8104006F0EEBAFA23EDE710BD10B512
:10489000036893F9082012F10C0F04460FDA027135
:1048A00023682BB306F0D2FA236893F908200C3260
:1048B000A4BF22791A72BDE8104006F0D3BAF522DF
:1048C000027158680028EBD01B7803F0F003202B0E
:1048D000E6D1A1688B6823B9096806F0CFF820718A
:1048E000DEE78B8901F10802096806F0ADF8F6E70A
:1048F00010BD000010B5036893F9082012F10C0FE9
:1049000004460DDA027106F0A1FA236893F9082033
:104910000C32A4BF22791A72BDE8104006F0A2BA88
:104920001A7802F0F002102A49D15A7812B1FB230A
:104930002371E8E75A68002A3FD001225A705A6A68
:104940000AB91B6A33B11F4B1F49204840F28362EA
:1049500007F003F8E36833B91A4B1D491B4840F2CE
:10496000846206F0FAFF2068002144620162FFF7CA
:104970007DFA30B323685B78012B06D0114B1549C3
:10498000124840F2896206F0E8FF134806F044FA44
:10499000206800210C3006F0F6F90F4806F037FACF
:1049A00023685B78012B0CD1064B0A49074840F27B
:1049B0008D62BDE8104006F0D0BFF523B8E7FA23BA
:1049C000B6E710BD6AC500087BC30008D7C0000861
:1049D0009DC3000896C300087042002000F1100338
:1049E000DBB2102B9DBF4042024B53F82000052044
:1049F000704700BFFCC5000810B5044660B10068F0
:104A000020B102F0E7F9002363602360214606200D
:104A1000BDE8104002F058B810BD000010B50446C3
:104A200038B9084B084909488122BDE8104006F012
:104A300094BF006808B102F0CDF9002363602360E1
:104A400010BD00BF40C60008AFC60008D7C00008B0
:104A500070B50E461546044640B90F4B0F49104835
:104A6000952206F07AFF6FF00F0070BD006808B164
:104A700002F0B0F900210222084602F015FA206087
:104A800018B960604FF0FF3070BD46600581458108
:104A90006060002070BD00BF40C60008C8C60008A6
:104AA000D7C00008032804D9064B09221A60002049
:104AB00070471423044A4343D018D358002BF3D033
:104AC000704700BF94790020E43D00202DE9F84FA5
:104AD000DFF86CB080460E4600254FF0140AD94628
:104AE0000AFB05F406F0B2F954F80B300246F3B9AC
:104AF0005C44677CDFB9C4F8008006F0B3F998F82D
:104B00000030676003F0F003102B278167810CD120
:104B1000003618BF0126142303FB059300229E8153
:104B2000DA811A742846BDE8F88F0126F3E71046AB
:104B3000013506F097F9042DD2D14FF0FF35F1E79A
:104B4000E43D00202DE9F84F0E460446002800F011
:104B500085808569002D0FDA06F078F9A569002DAA
:104B6000034607DA0EB9013DA5611846BDE8F84FC6
:104B700006F078B906F076F92846FFF793FF044669
:104B800000286BD006F062F90746042E16D8DFE83D
:104B900006F0030A0D101200638901336381637C00
:104BA000A3B93846E2E76389013BF7E70123A38114
:104BB000F5E70023FBE70123E381F0E7284B2949D0
:104BC000294840F25D6206F0C8FEE8E74FEA551B4F
:104BD000012305F01F05DFF8988003FA05F5234B44
:104BE0001E684FF00109002EDBD07369D8F800A0D1
:104BF000FBB9B4F90A20002A07DDB2682AB152F8DD
:104C00002B301D4214BF01230023A28942B13BB9BE
:104C1000F2682AB152F82B301D4214BF0123002341
:104C2000E28992B19BB933691BB153F82B301D4215
:104C30000DD1384606F016F906F008F9D8F800301C
:104C40009A450746CBD13668CDE7002BF1D0C6F8A0
:104C5000149006F1180006F0B1F8EAE7BDE8F88F05
:104C6000E0C6000812C70008D7C00008E03D0020D9
:104C7000DC3D002037B51546FFF714FF044618B990
:104C80004FF0FF3003B030BD4B782BB90068FEF712
:104C9000F9FE80B92074F5E7102D03D1022B01D164
:104CA0008B0710D00E4B0F490F4840F29F2206F0A1
:104CB00054FE6FF00F00FFF791FE20740028DFD044
:104CC0000A4B1860DCE702AD4B68488845F8043DA4
:104CD00000F002FA294602462068FEF7ADFED8E74A
:104CE000E0C6000820C70008D7C00008947900205B
:104CF0002DE9F04385B081460F46154619460C9CB8
:104D0000DDF83480FFF7CEFE064610B94FF0FF30D5
:104D10000BE003681A7802F0F002102A08D10B4663
:104D20002A463946484600F05DF805B0BDE8F083F4
:104D3000B5F5803F06D3264B2649274840F27B42F3
:104D400006F00BFE14B9B8F1000F18D0B8F1100F2F
:104D500004D16378022B01D1A30710D01C4B1F494B
:104D60001D484FF4906206F0F8FD6FF00F00FFF75A
:104D700035FE30740028C9D0194B1860C6E70023EF
:104D80000193009304B363686088029300F0A4F970
:104D9000ADF80C00AAB239466846FFF759FE044642
:104DA00020B969463068FEF78BFE04466846FFF777
:104DB00035FE2046FFF712FE307408B1084B18602C
:104DC000002CA3D1A8B2B0E702942046E0E700BFD0
:104DD000E0C600083EC70008D7C0000862C7000848
:104DE00094790020F0B585B0074616461D46FFF7BA
:104DF00059FE044618B94FF0FF3005B0F0BD006809
:104E0000037803F0F003102B08D0002301930093E4
:104E100032462B463846FFF76BFFEEE715F0100FD2
:104E200014BF0322012215F0080F04AD4FF0000754
:104E300045F8047D14BF0423002313430095324634
:104E4000FEF75CFE0546FFF7C9FD207408B1034B71
:104E50001860002DCFD10398CFE700BF94790020D0
:104E6000022938B5134610D0032905D0012914D1E1
:104E7000154A0021102002E0134AD9B24020FEF763
:104E800069FD044680B9692208E0882A4FF00001D4
:104E90000D4A0CBF21202020F1E716220B4B4FF0CA
:104EA000FF351A60284638BD0021FFF70FFE431C6E
:104EB000054606D12046FEF7A7FD044B17221A60CF
:104EC000F0E7A061EEE700BF454B000894790020B1
:104ED0001D4B1B6807B513B11C4A106898471C4846
:104EE0001B4D1C4E1C4C05F092FF284605F094FF0C
:104EF00001A9304605F0E6FB284605F088FF019B36
:104F000033B9234669221549154806F026FDECE71A
:104F10001A78032A0BD0042A0FD0022A11D1181DA7
:104F200007C890470199092001F0CEFDDDE7986898
:104F30005A68904701990820F6E75A6898689047A0
:104F4000D3E723469B22DEE7383E00203C3E00208C
:104F500070420020343E0020DDC700080DC8000864
:104F6000D7C00008F8B5074610480E46154605F0AC
:104F7000EAFE28B90E4B0F490F48B52206F0EDFCAA
:104F8000092001F085FD044668B1022303704760E3
:104F90008660C5600146054805F098FE28B12146A7
:104FA000092001F091FD4FF0FF30F8BD343E0020A4
:104FB000DDC70008D0C70008D7C0000891F82B3023
:104FC00013F0180F14BF024A024AFFF7CBBF00BF0D
:104FD00075AB00085D5A0008F8B5074612480E4642
:104FE000154605F0B0FE28B9104B11491148EE22C4
:104FF00006F0B3FC082001F04BFD044688B1032302
:10500000037047608660014607481DB105F052FEF7
:105010000020F8BD05F05AFE28B12146082001F015
:1050200053FD4FF0FF30F8BD343E0020DDC70008CF
:10503000D0C70008D7C0000870B5064C0E4605461C
:10504000204605F0E4FE3046A847204605F0E4FE81
:10505000002070BD7042002037B505460C4600F0B8
:1050600040F8134B13481D60134B06211C6005F0DC
:1050700005FE30B1114B1249124840F2D51206F02C
:105080006CFC114805F0B4FE30B10C4B0F490D48D3
:1050900040F2D91206F061FC0323009300224FF482
:1050A00080630B490B4805F0BAFE03B030BD00BF6A
:1050B000383E0020343E00203C3E0020DDC7000882
:1050C0007FC70008D7C0000870420020A2C70008B0
:1050D000D14E0008C3C7000840BA80B2704700BA7A
:1050E000704708B505F078FE01F05EFA01F0C2FCE9
:1050F00001F00DFD05F038FB02F0B2F9BDE8084003
:1051000005F0B6BA70B51826074C46430546A059B7
:1051100018B101F05FFE0023A351182303FB0544DF
:105120000023237570BD00BF403E00202DE9F347EA
:105130000B9D894692469846074630B92C4B2D491F
:105140002D484FF48B6206F008FC00221C2102203F
:1051500001F0AAFE0646002847D043891B2B06D83B
:10516000234B2649244840F2644206F0F6FBBDF882
:1051700034007468FFF7B0FFE08097F82430062B06
:1051800006D01B4B1E491C4840F26B4206F0E5FB63
:10519000D8F80030A360B8F80430A3812B68C4F8B5
:1051A0001230AB88E3820A9B1B68C4F80E300C9B5C
:1051B0001B68A361012363700823A3700623237176
:1051C00004230025637140F606032570E5704A4606
:1051D000009331465346384605F018FD304601F03D
:1051E000F9FD284602B0BDE8F0874FF0FF30F9E73F
:1051F00020C9000857C90008D7C0000865C90008C1
:1052000096C900082DE9F74F3E4B01910A22054649
:1052100000209446144681468046834696461E46A4
:10522000BEF10A0F1F7D12D19FB94FFA80FE0130E7
:105230000A2803F11803F3D1019B990704D4BEF1A6
:105240000A0F1CD1DB0735D44FF0FF3009E0002FE7
:10525000EDD0002D4AD029688A4659688A4545D143
:1052600040B203B0BDE8F08FC245E0D34FFA80FCF6
:10527000D046DCE7CA4524BF44B2D146D7E75FFA3F
:105280008EF7182303FB07631B7D33B11E4B1F49A9
:105290001F4840F2871206F060FB25B1182303FB7C
:1052A00007632A685A60182303FB0766002373828A
:1052B00078B2D6E70A2C0FD01823E7B25C433359F3
:1052C00033B1114B1349124840F26F1206F045FBFF
:1052D0003846FFF717FFD4E7BCF10A0F02D05FFA98
:1052E0008CF7F5E70A2AAFD0D7B2F1E7012FB3F870
:1052F00012A0BFD11F68002FB6D0DA4597D342B2B3
:10530000D34694E7403E002020C9000842C8000868
:10531000D7C000082BC8000870B5084D0646002409
:105320002B7D2BB1AB68B34202D12046FFF7EAFEDA
:1053300001340A2C05F11805F2D170BD403E002061
:105340002DE9F047804686B00C4649B9464B47499F
:1053500047484FF4227206F000FB06B0BDE8F08724
:1053600045682B88B3F5807F08D12B79062B05D1B2
:105370006B79042B02D16B88082B03D0404601F0D7
:1053800029FDEAE74E68D5F80E300593AB6916B1F2
:105390009B1B5E425E4194F82430002E14BF4FF0F8
:1053A00001094FF00209062B05F1080706D02E4B24
:1053B00030492F4840F2AB1206F0CFFA059800288A
:1053C0003CD0214600F095FC8246B8BB059B03F01B
:1053D000F003E02B32D0494605A8FFF713FF002861
:1053E0002CDB254B182202FB00F103EB010E4FF0E2
:1053F000020C8EF814C04FF00C0CCEF8084012FBD3
:1054000000C23868985003EB020CBA88ACF804204C
:1054100053F80190AEF812A0B9F1000F0ED043F886
:1054200001A04FF40063009304F125023B46494676
:10543000204605F0EBFB484601F0CCFCEB88B3F5C9
:10544000807F9BD1002E99D00222039205AA04F1FD
:1054500025030292221D009201973A4619462046E2
:10546000FFF764FE8AE700BF20C9000857C900089B
:10547000D7C000088AC80008403E00201FB5024679
:1054800000F12503029101240549019104320092A3
:105490000394044A1946FFF749FE04B010BD00BF4B
:1054A000EADF00087EDF0008F8B5134C002502266D
:1054B0000427227C6AB1E38901339BB2B3F5967F5E
:1054C000E38103D2012A0AD1042B0CD92846FFF725
:1054D00019FE01350A2D04F11804EAD1F8BD032A9A
:1054E00006D12774F5E721466068FFF7C7FFF0E7AC
:1054F000042AEED12674ECE7443E00202DE9F04367
:10550000274D1446182202FB045285B0127D012A51
:105510000646884606D8234B2349244840F2ED220C
:1055200006F01BFA182101FB045906F1250799F82A
:105530001430022B0DD1B9F81230B3F58E7F17D984
:10554000494604313046FFF799FF10B9032389F823
:105550001430182303FB04534FF4006200920C3301
:105560003A464146304605F051FB05B0BDE8F083B0
:10557000B3F5877FEDD304EB4403DB0003F10C02AA
:1055800004332B4402930A4B01930121331D0391F1
:1055900000932A443B4639463046FFF7C7FDD4E71F
:1055A000403E002020C90008AEC80008D7C000084F
:1055B000EADF00082DE9F347894680460146D9F81D
:1055C0000000164600F095FB044600285ED1D9F88D
:1055D000003003F0F002E02A58D0002B56D0012111
:1055E0004846FFF70FFE051E53DB404F182303FB11
:1055F00005731A7D1AB901241C75C3F80880182395
:1056000003FB05731B7D33B9394B3A493A4840F2E5
:10561000C93206F0A2F90CB9002E3CD149464046E9
:10562000FFF72CFF002E38D102B0BDE8F087FBD188
:10563000DFF8BC80DFF8C890DFF8BCA034469CB926
:10564000304601F085FD002E4CD0B046182303FBF8
:1056500005F21C46B85808B101F0BCFB04FB05F389
:10566000002047F80380DFE7628923899A4208D146
:10567000236833B143464FF47B724946504606F0E7
:105680006CF9237B012B1ED12468D8E76FF00F0043
:10569000CAE72846C8E74FF0FF30182303FB05721E
:1056A000127D012AC3D9154A15700C2213FB05235C
:1056B0004FF4006200923B4408F125023146404617
:1056C00005F0A4FAB0E700222189022001F0ECFBEA
:1056D000804638B1314601F09BFD0028B6D04046E7
:1056E00001F078FB4FF0FF309EE700BF403E002006
:1056F00020C90008DEC80008D7C00008303F0020DD
:1057000006C90008F0B50E4685B01546044630B906
:105710003E4B3F493F4840F21B3206F01EF936B976
:105720003A4B3D493B484FF4477206F016F935B9FC
:10573000364B3A49374840F21D3206F00EF9214601
:10574000286800F0D6FA00285BD12B6803F0F0023D
:10575000E02A1DD101238DF808305E238DF80A3030
:105760006B788DF8090003F07F038DF80B30AB7870
:105770008DF80C30EB788DF80D3002AB4FF40062F1
:105780000092314604F12502204605F03FFA1FE061
:105790006268A1685A400A4208D09BB24FF6A962DB
:1057A000934203D0E36873B304F10C051C4B1D490D
:1057B0001A78182000FB0210017D0129194609D929
:1057C0002F6843689F4205D131462046FFF796FE79
:1057D00005B0F0BD134B0022187D012806D92F68B3
:1057E0005868874202D1D2B20A70EDE701320A2A24
:1057F00003F11803F0D1324629462046FFF7DAFEBE
:10580000E6E7094BBAE76FF00300E1E720C90008BB
:1058100057C90008D7C00008A3D300086BC8000808
:10582000303F0020403E00207EDF0008F0B50446F7
:1058300087B00F46164624210022012001F034FBD8
:105840000546A0B34389232B06D81A4B1A491B4897
:105850004FF4B17206F081F822686C68002323715E
:105860006371A371E37127706670134604F1080138
:1058700002F11C0053F8046B41F8046B8342F9D128
:1058800006AED36846F8043D304600F0BBF858B188
:1058900000210123A170E170324602908DE80A00D8
:1058A0002846FF2300F014FA284601F093FA07B0C7
:1058B000F0BD00BF3ECA000873CA0008D7C0000888
:1058C0002DE9F043444BD3F8089099F8005005F0C7
:1058D0000F05AD00132D85B0044688461F462AD912
:1058E0004289032A27D942681278082A23D15869A5
:1058F00000F0F002E02A1ED0196800F0FAF906461E
:10590000C8B92389072B16D905F10E01204601F0ED
:105910005BFA00284FD021892944324689B20220FF
:1059200001F0C2FA064630B1428905F108039A42F5
:1059300007D201F04FFA204605B0BDE8F04301F070
:1059400049BA49462A46406806F06FF9694230462E
:1059500001F03AFA38B1214B21492248AF2205F033
:10596000FCFF3046E5E72146304601F051FC0028B7
:10597000F7D1204601F02EFA3446294620466668C3
:1059800001F022FA02460028D5D161687B69CB601C
:105990003B690B61FF233070B070F0700B7288723E
:1059A000C872012101910090CDF808800E4920466F
:1059B00000F08EF9BFE7C5F57F41F23109B220460C
:1059C00001F002FA0028D8D0044B08490548C0224B
:1059D00005F0C3FFAFE700BF744200203ECA0008D5
:1059E000D7C90008D7C00008884200200CCA0008A8
:1059F0000A4604300321FFF719BF0A4604300B2181
:105A0000FFF714BF30B5134B1B686BB9124A12680D
:105A1000EAB192F82B1001F00501052917D1516860
:105A2000002918BF134612E093F82B4004F005023A
:105A3000052AE9D15A68002AE6D001689D684A40E3
:105A40002A4204D0A207DFD4DA689142DCD118469A
:105A500030BD00BF687900206C7900202DE9F84F37
:105A6000476897F800904FEA1913042B05468846BB
:105A700005D0284601F0AEF90020BDE8F88F7888FF
:105A8000FFF72AFB2B8909F00F0983424FEA8909A6
:105A9000044603D90146284601F0E2FA6B894B45DA
:105AA000E7D32B89A342E4D3B9F1130FE1D93B69C2
:105AB000494C636103F0F003FA682261E02B39D1AD
:105AC00098F82B30DA0703D5D8F80430002B58D1DA
:105AD00000264146206900F00CF90028C9D123694D
