:020000040800F2
:1000000000000320C1960008DD920008DF9200087E
:10001000E1920008E3920008E59200080000000069
:100020000000000000000000000000006121000846
:10003000E792000800000000F121000855220008A6
:1000400011970008119700081197000811970008F0
:1000500011970008119700081197000811970008E0
:1000600011970008119700081197000811970008D0
:1000700011970008119700081197000811970008C0
:1000800011970008119700081197000811970008B0
:1000900011970008119700081197000811970008A0
:1000A00011970008E99200081197000811970008BD
:1000B0001197000811970008119700081197000880
:1000C0001197000811970008119700081197000870
:1000D0001197000811970008119700081197000860
:1000E0001197000811970008119700081197000850
:1000F0001197000811970008119700081197000840
:10010000119700081197000811970008119700082F
:10011000119700081197000811970008119700081F
:10012000119700081197000811970008119700080F
:1001300011970008F5920008119700081197000820
:1001400011970008119700081197000811970008EF
:1001500011970008119700081197000811970008DF
:1001600011970008119700081197000811970008CF
:10017000119700081197000811970008000000006F
:1001800011970008119700081197000811970008AF
:10019000119700081197000811970008119700089F
:0C01A00011970008119700081197000843
:1001B00010B5054C237833B9044B13B10448AFF3A1
:1001C00000800123237010BD1000002000000000FB
:1001D000A097000808B5034B1BB103490348AFF3D0
:1001E000008008BD0000000014000020A097000857
:1001F00053B94AB9002908BF00281CBF4FF0FF318E
:100200004FF0FF3000F07AB9ADF1080C6DE904CE83
:1002100000F006F8DDF804E0DDE9022304B07047E1
:100220002DE9F0478C460D460446089E002B51D11F
:100230008A4217466DD9B2FA82FEBEF1000F0BD08A
:10024000CEF1200C01FA0EF520FA0CFC02FA0EF7A2
:100250004CEA050C00FA0EF44FEA174A250CBCFBD9
:10026000FAF81FFA87F90AFB18CC45EA0C4508FB97
:1002700009F3AB420AD9ED1908F1FF3280F023816E
:10028000AB4240F22081A8F102083D44ED1AA4B22D
:10029000B5FBFAF00AFB105544EA054400FB09F9E6
:1002A000A14509D9E41900F1FF3380F00A81A14585
:1002B00040F2078102383C44A4EB090440EA0840BC
:1002C0000021002E61D024FA0EF400233460736004
:1002D000BDE8F0878B4207D9002E54D0002186E874
:1002E00021000846BDE8F087B3FA83F1002940F009
:1002F0008E80AB4202D3824200F2FA80841A65EB10
:1003000003050120AC46002E3FD086E81010BDE862
:10031000F08712B90127B7FBF2F7B7FA87FEBEF1F3
:10032000000F34D1EB1B3A0C1FFA87FC0121B3FB01
:10033000F2F8250C02FB183345EA03450CFB08F3E1
:10034000AB4207D9ED1908F1FF3002D2AB4200F2FF
:10035000D1808046ED1AA3B2B5FBF2F002FB105536
:1003600043EA05440CFB00FCA44507D9E41900F15D
:10037000FF3302D2A44500F2B8801846A4EB0C0467
:1003800040EA08409DE731463046BDE8F087CEF1AF
:10039000200405FA0EF307FA0EF720FA04F83A0CD7
:1003A00025FA04F448EA0308B4FBF2F14FEA1845D1
:1003B00002FB11441FFA87FC45EA044501FB0CF3DC
:1003C000AB4200FA0EF409D9ED1901F1FF3080F0CB
:1003D0008A80AB4240F2878002393D44EB1A1FFA13
:1003E00088F5B3FBF2F002FB103345EA034500FB4E
:1003F0000CF3AB4207D9ED1900F1FF386FD2AB42D5
:100400006DD902383D44EB1A40EA01418FE7C1F152
:10041000200722FA07F88B4005FA01F448EA0303A3
:1004200020FA07FE4FEA134CFD404EEA040EB5FBDE
:10043000FCF94FEA1E440CFB19551FFA83F844EAF5
:10044000054509FB08F4AC4202FA01F200FA01FA90
:1004500008D9ED1809F1FF3043D2AC4241D9A9F1D6
:1004600002091D442D1B1FFA8EFEB5FBFCF00CFB90
:1004700010554EEA054400FB08F8A04507D9E418DA
:1004800000F1FF3529D2A04527D902381C4440EAA3
:100490000940A4EB0804A0FB02894C45C6464D4622
:1004A00015D312D056B1BAEB0E0364EB050404FA6F
:1004B00007F7CB401F43CC40376074600021BDE894
:1004C000F0871846F8E69046E0E6C245EAD2B8EB77
:1004D000020E69EB03050138E4E72846D7E74046FA
:1004E00091E78146BEE7014678E702383C4445E79C
:1004F000084608E7A8F102083D442BE7704700BF13
:1005000008B50B4B1A6842F400721A601A6842F47C
:1005100080621A601A6842F480721A60032000F048
:100520002FF8002008F09CFE08F078FE002008BD9F
:10053000003C0240034A044B11681B780B441360D3
:10054000704700BF6441002000000020014B186884
:10055000704700BF6441002038B50446FFF7F6FF3E
:10056000631C1CBF054B1B78054618BFE418FFF73A
:10057000EDFF401B8442FAD838BD00BF00000020C8
:10058000074AD36823F4E0631B041B0C43F0BF63EA
:10059000000243F4003300F4E0600343D36070478B
:1005A00000ED00E0174B30B5DC68C4F30224C4F161
:1005B0000703251D042B28BF0423062D4FF001053A
:1005C00005FA03F303F1FF338CBF033C0024194009
:1005D000A14005FA04F4013C2240002842EA01024D
:1005E0004FEA0212ADBF00F1604000F00F00064B71
:1005F00000F56140B5BFD2B2D2B21A5480F80023E0
:1006000030BD00BF00ED00E014ED00E0002808DB85
:100610004209012300F01F0003FA00F0014B43F8E8
:100620002200704700E100E082B0074B4FF4FA521D
:100630001B68B3FBF2F3019300BF019B5A1E0192AA
:10064000002BF9D102B070470C00002007B5002341
:10065000019341F2180103685A5842F480125A502B
:100660005B580193FFF7E0FF019A03685A5003B00B
:100670005DF804FB70B5044629B14FF40063C36014
:100680004FF480438360E3692268E0681568002BBB
:10069000A36843EA0003304843F4007300EA05000E
:1006A0000CBF4FF48061002103430B431360012012
:1006B0001568FFF751FF236840221D6001205A6032
:1006C0005D68FFF749FF23685D6000259D60DD6080
:1006D0009A6922F0BE021204120C42F080029A6162
:1006E00001209E69FFF738FF236801209E61DD61CC
:1006F000DD69FFF731FF2268184BD56141F218051B
:10070000012051590B4043F0087343F00403535147
:100710005659FFF721FF2368114A5E5103F58053B4
:1007200001201A601D68FFF717FF226802F5805349
:100730001D60A369012B07D141F21C01535843F4FA
:10074000803343F0400353506369064A998811602F
:100750001A68054B1A6070BD0F8120FF233FDEF839
:100760008020C1024080024044800240F0B590F8F1
:100770004540012C4FF0020433D0012580F845504C
:1007800080F84440C16201F1200400254FF4801735
:1007900040F2F45E03F1FF3C9D420BD1026841F24E
:1007A0001003D150012380F84430002380F84530F5
:1007B0001846F0BD0EFB052644F8186CC66944F8CF
:1007C000207C2EB954F8206C46F4400644F8206C86
:1007D00065452CBF0E46264644F8146C013520347E
:1007E000DAE72046F0BD2DE9F04190F84540012CB4
:1007F0004FF0020430D0012580F8455080F8444085
:10080000816201F1200400254FF0004644F2F457C4
:1008100040F2F45E03F1FF3C9D420CD1026841F2CC
:100820000C03D150012380F84430002380F8453078
:100830001846BDE8F0810EFB052844F8188C654584
:100840002CBF8846A04644F8206C44F81C7C44F831
:10085000148C01352034DFE72046BDE8F08100002C
:1008600090F84530012BF0B54FF0020368D001221B
:1008700080F8452080F8443029B980F8442080F879
:1008800045101046F0BDC36A1C68002C06DA12231E
:1008900080F84430002380F84530F2E740F2F45409
:1008A000A1422ED9B1FBF4F204FB12143CB3013285
:1008B000244C01F2F45104FB0211C1F30C01002499
:1008C00040F2F456571E1D6825F040551D601CB9B6
:1008D0001D6845F080551D60A74208BF1D685E6019
:1008E00004BF45F000551D601D6808BF5960013404
:1008F00045F0004594421D60DB68E4D10DE0012A1B
:10090000D6D11A6842F040521A601A68C1F30C013D
:1009100042F0004259601A60DB68C36241F214027F
:1009200003689958490705D50421995041F20402FA
:1009300000219950012380F84430002380F845308D
:100940001846F0BD0CFAFFFF90F84530012B30B58A
:100950004FF002033BD0012280F8452080F844305C
:1009600005241146836A1A68002A01DB013C06D17E
:100970000123002280F8443080F8452027E01A68DF
:10098000DD6802F44072B2F5007F03D10363816336
:100990008562E7E71A6812F4407F826B02D1013268
:1009A0008263F5E70132012A08BF036343631B68D2
:1009B0008263C3F30D43043BC363036B9B6803640F
:1009C000012380F844300023856280F845301846C2
:1009D00030BD7047704770B5026841F21406044696
:1009E000955915F0400521D008F0D0F92368402230
:1009F0009A51012384F84430002384F84530236859
:100A000041F214054FF480325A515B591B040CD546
:100A10002046FFF7DFFF23684FF400425A510123BD
:100A200084F84430002384F8453070BD9359DA07C8
:100A3000E5D5FFF7CEFF22680123935184F84430B7
:100A400084F84550DBE7F8B590F84430822B054632
:100A5000164630D00268822380F844301369890139
:100A600001F4F86403F01C012143048AE402A4B2F7
:100A70000C4344F001041461FFF768FD074614F0CD
:100A8000010007D12B685B699BB23360012385F8B5
:100A90004430F8BDFFF75AFDC01BB0F5803F07D3C7
:100AA000012385F84430002385F845300320F8BD44
:100AB0002B681C69E3E70220F8BD90F84430422B14
:100AC00070B505462ED0422380F8443003688C016F
:100AD000186904F4F86444F0030400F01C00204397
:100AE0002C8AE402A4B2044392B25A611C61FFF75B
:100AF0002DFD064614F0010003D1012385F8443092
:100B000070BDFFF723FD801BB0F5803F07D30123A5
:100B100085F84430002385F84530032070BD2B68EC
:100B20001C69E7E7022070BDF7B500230093044677
:100B3000002800F0DE8090F8443003F0FF021BB97B
:100B400080F8452008F094F8002301936A4B5A6C12
:100B500042F480425A645B6C03F480430193019B2E
:100B6000664B5A6822F400025A605A68216A0A43A6
:100B70005A60236803F580531A6842F001021A6034
:100B8000FFF7E4FC0546236803F580521268D0079E
:100B90001DD41D6900F0C2FC594B5A4A03449342CC
:100BA00025F01C0522D845F0080523684FF40042C3
:100BB0001D6100212046FFF780FF054668B3012133
:100BC00020460125FFF756FD84F844500BE0FFF75F
:100BD000BDFC401BB0F5FA7FD5D90325002384F86E
:100BE000445084F84530284603B0F0BD464B474A90
:100BF0000344934202D845F00C05D6E7444B454ADE
:100C000003449342D1D9444B444A0344934294BF92
:100C100045F0040545F01005C7E7FF20FFF79CFCF1
:100C20006368002B53D0FFF791FC41F288370646EA
:100C30006A4601212046FFF706FFFFF787FC801B6D
:100C4000B8420BD901212046FFF714FD012384F897
:100C50004430002384F845300325C4E7009B59073E
:100C6000E6D54FF4805200212046FFF726FF0028EA
:100C7000A5D1FFF76BFC41F2883706466A46012191
:100C80002046FFF7E0FEFFF761FC801BB842D9D891
:100C9000009B9A06F2D56A461F212046FFF7D3FE35
:100CA00000288CD1009B13F0100218BF4FF4006293
:100CB0005B074CBF00234FF48043E260A360002138
:100CC0002046FFF7D7FC012384F844308BE7A36864
:100CD000E2685B0843EAD20292B229462046FFF757
:100CE000ECFE00287FF46BAF40F6FF70FFF734FC9A
:100CF000E5E7012577E700BF0038024000380140F2
:100D000000D3CEFEBFE1E40040F1E9FD3F787D0174
:100D100000796CFCFF596202001F0AFA7FF0FA02A8
:100D200090F84530012B73B505464FF0020031D0E5
:100D300000242B6885F8440001941A68012642F0CB
:100D4000080285F845601A601B680193FFF76CFC88
:100D50002B68019A1A6000941A6842F004021A6023
:100D60001B680093FFF760FC2B68009A1A60284606
:100D7000FFF76CFC2A6841F218032046D15841F471
:100D80000051D150D15841F00201D15085F8446052
:100D900085F8454002B070BD2DE9F04F85B00B6875
:100DA000DFF8C4816E4ADFF8C491019300234FF04D
:100DB000010E019C0EFA03FE0EEA0406B64540F051
:100DC000B6804C6824F01007022F16D14FEAD30AE0
:100DD00000EB8A0A03F0070BDAF820504FEA8B0B7E
:100DE0004FF00F0C0CFA0BFC25EA0C0C0D6905FA00
:100DF0000BF545EA0C05CAF820504FEA430A0325D3
:100E0000D0F800B005FA0AF5ED4304F0030C0BEA44
:100E1000050B0CFA0AFC013F4CEA0B0C012FC0F841
:100E200000C011D8876807EA050BCF6807FA0AFCEB
:100E30004CEA0B078760476827EA0E0EC4F30017D9
:100E40009F4047EA0E074760C7683D408F6807FA32
:100E50000AF73D43C560E50069D54FF0000BCDF8BA
:100E60000CB0D8F844703F4D47F48047C8F8447040
:100E7000D8F8447007F480470397039F23F00307D3
:100E800007F1804707F59C3703F0030CD7F808A05B
:100E90004FEA8C0C4FF00F0E0EFA0CFEA8422AEA15
:100EA0000E0E4BD005F58065A84249D005F580654A
:100EB000A84247D005F58065A84245D005F5806574
:100EC000A84243D0484543D005F50065A84241D02B
:100ED00005F58065A8423FD005F58065A8423DD064
:100EE00005F58065A84214BF0A25092505FA0CF509
:100EF00045EA0E05BD601568F74314F4803F0CBF4A
:100F00003D4035431560556814F4003F0CBF3D402B
:100F100035435560956814F4801F0CBF3D40354340
:100F20009560D568A40254BF3D403543D560013378
:100F3000102B7FF43CAF05B0BDE8F08F5D46D5E7E0
:100F40000125D3E70225D1E70325CFE70425CDE727
:100F50000525CBE70625C9E70725C7E70825C5E727
:100F6000003C0140000002400038024000140240F2
:100F70000AB1816170470904FBE7F0B504468BB004
:100F800060B390F8BD33056803F0FF021BB980F829
:100F9000BC2308F053FB032384F8BD33EB6B2546D9
:100FA00013F4807355F8100B08BF236100F0D4FDD3
:100FB0000FCD6E460FC60FCD0FC695E8030086E82D
:100FC00003002546271D97E80E0055F8100B00F08A
:100FD00083FD064620B1022384F8BD33012550E08D
:100FE0000146206800F0BEFD3046D4F804E01C261F
:100FF0004FF0010C0146C2B2964500F101001CD829
:1010000000231C261946D8B2864503F1010322D8D5
:101010000FCD6E460FC60FCD0FC695E8030086E8CC
:10102000030097E80E00206800F0DEFD012305466E
:1010300000B3022284F8BD23D0E706FB024383F805
:101040003DC083F83C20A3F8422083F83F10596448
:1010500099641965CFE706FB004282F8FD1182F81A
:10106000FC0182F8FF11C2F80412C2F80812C2F89B
:101070001012C8E784F8380084F8BD33206800F007
:1010800077FE28460BB0F0BD2DE9F341044618B9B0
:10109000012002B0BDE8F0810368DD0710D42368A9
:1010A000980758D423681A0700F19A8023685B07D1
:1010B00000F1B880A269002A40F019810020E8E719
:1010C000A64B9A6802F00C02042A07D09A6802F034
:1010D0000C02082A0AD15B68590207D59F4B1B688E
:1010E0009A03DCD56368002BD9D1D1E763689B4DA7
:1010F000B3F5803F11D12B6843F480332B60FFF7A9
:1011000025FA964D06462B689B03C8D4FFF71EFAB6
:10111000801B6428F7D90320BBE7B3F5A02F04D1C7
:101120002B6843F480232B60E5E72A6822F48032A1
:101130002A602A6822F480222A60002BDFD1FFF780
:1011400005FA06462B689F03A9D5FFF7FFF9801B18
:101150006428F7D9DFE7814B9A6812F00C0F07D0AB
:101160009A6802F00C02082A11D15B685E020ED464
:101170007A4B1A68950702D5E268012A88D11A6865
:10118000216922F0F80242EAC1021A608AE7E268A5
:10119000734BB2B101221A60FFF7D8F96F4D0646C2
:1011A0002B68980707D52B68226923F0F80343EAD8
:1011B000C2032B6076E7FFF7C9F9801B0228EFD93D
:1011C000A9E71A60FFF7C2F9644D06462B68990734
:1011D0007FF568AFFFF7BAF9801B0228F6D99AE7C6
:1011E0006269604B7AB101221A60FFF7AFF95B4D7B
:1011F00006466B6F9F073FF559AFFFF7A7F9801BB6
:101200000228F6D987E71A60FFF7A0F9534D064682
:101210006B6F98077FF54AAFFFF798F9801B02289C
:10122000F6D978E74D4B1A6C12F0805228D1019212
:101230001A6C42F080521A641B6C03F080530193C5
:10124000019B0126484D2B68D9051BD5A368434D4A
:10125000012B27D12B6F43F001032B67FFF776F9A2
:101260003E4D074641F288382B6F9B0739D5002E3B
:101270003FF420AF394A136C23F08053136419E70D
:101280000026DFE72B6843F480732B60FFF75EF9DD
:1012900007462B68DA05D9D4FFF758F9C01B022896
:1012A000F7D938E7052B04D12B6F43F004032B67E4
:1012B000D0E72A6F22F001022A672A6F22F0040287
:1012C0002A67002BCAD1FFF741F941F28838074657
:1012D0002B6F9807CBD5FFF739F9C01B4045F7D9DD
:1012E00019E7FFF733F9C01B4045BDD913E71B4D84
:1012F000AB6803F00C03082B3FF4CAAE1B4E00236F
:10130000022A336034D1FFF721F907462B6899018F
:101310001ED4226AE3691343626A43EA8213E26AD3
:1013200043EA0263A26A0D4C5208013A43EA0243BF
:101330006B6001233360FFF709F9054623689A01C2
:101340003FF5BCAEFFF702F9401B0228F6D9E2E6F2
:10135000FFF7FCF8C01B0228D8D9DCE600380240B1
:1013600000004742800E4742007000406000474244
:10137000FFF7ECF804462B689B017FF59FAEFFF763
:10138000E5F8001B0228F6D9C5E600BF134908B5E9
:101390008B6803F00C03042B03D0082B03D01048F8
:1013A00008BD104808BD4A684B68496813F48003BB
:1013B00014BF0C480A48C1F3881118BF002302F07B
:1013C0003F02A1FB0001FEF713FF044B5B68C3F370
:1013D000014301335B00B0FBF3F008BD003802406D
:1013E0000024F40000127A002DE9F0410D46044675
:1013F00010B90120BDE8F081444B1A6802F00F02D9
:101400008A4228D321688F072DD4C80740D43F4B88
:101410001A6802F00F02954266D3226851076CD415
:10142000130707D53A4A2169936823F4604343EAD6
:10143000C1039360FFF7AAFF354B364A9B68C3F39D
:101440000313D35CD840344B1860002007F008FF2A
:101450000020BDE8F081CAB21A701B6803F00F03C8
:101460009942C6D1CEE72A4B11F0040F1EBF9A68ED
:1014700042F4E0529A600E0742BF9A6842F460421A
:101480009A609A68A06822F0F00202439A60BCE772
:1014900062681F4B012A1DD11B6813F4003FA8D0BE
:1014A0001B4EB36823F003031343B360FFF74EF8FA
:1014B00041F288380746B368626803F00C03B3EB67
:1014C000820FA4D0FFF742F8C01B4045F3D9032098
:1014D000BDE8F081911E01291B6802D813F0007F3E
:1014E000DDE713F0020FDAE7EAB21A701B6803F0C7
:1014F0000F039D427FF47DAF8FE70549E0688B685D
:1015000023F4E05303438B608AE700BF003C0240B2
:10151000003802403AAD00080C000020014B18686A
:10152000704700BF0C000020044B054A9B68C3F3C2
:101530008223D35C034A1068D840704700380240C9
:101540004AAD00080C000020044B054A9B68C3F319
:101550004233D35C034A1068D840704700380240D9
:101560004AAD00080C0000200F2303600B4B9A6863
:1015700002F0030242609A6802F0F00282609A6808
:1015800002F4E052C2609B68DB0803F4E05303619D
:10159000034B1B6803F00F030B60704700380240D9
:1015A000003C024070470368DA6842F00102DA60EA
:1015B0009A6802F00702062A1EBF1A6842F001026A
:1015C0001A60002070477047704770477047036883
:1015D0001A69910710B504460ED5DA6892070BD543
:1015E0006FF002021A619B6901229B07027777D094
:1015F000FFF7EAFF0023237723681A69500710D505
:10160000DA6851070DD56FF004021A619B69022256
:1016100013F4407F2277204668D0FFF7D5FF0023E0
:10162000237723681A6912070FD5DA6810070CD5DB
:101630006FF008021A61DB690422990722772046BD
:101640005AD0FFF7C1FF0023237723681A69D20617
:1016500010D5DA68D0060DD56FF010021A61DB697B
:10166000082213F4407F227720464BD0FFF7ACFFCF
:101670000023237723681A69D10708D5DA68D207CF
:1016800005D56FF001021A61204607F0B7FD236807
:101690001A69100608D5DA68110605D56FF08002C0
:1016A0001A61204600F0B7F823681A69520608D577
:1016B000DA68500605D56FF040021A612046FFF740
:1016C00085FF23681A69910622D5DA6892061FD52C
:1016D0006FF0200220461A61BDE8104000F09AB871
:1016E000FFF771FF2046FFF770FF83E7FFF76BFFFF
:1016F0002046FFF76AFF92E7FFF765FF2046FFF7F6
:1017000064FFA0E7FFF75FFF2046FFF75EFFAFE74C
:1017100010BD0000304A0368904212D0B0F1804FF3
:101720000FD0A2F57C4290420BD002F5806290422D
:1017300007D002F58062904203D002F578429042D1
:1017400019D14A6823F070031343234A904229D0E9
:10175000B0F1804F26D0A2F57C42904222D002F513
:10176000806290421ED002F5806290421AD002F54B
:101770007842904216D0194A904213D002F5806206
:1017800090420FD002F5806290420BD0A2F59832C1
:10179000904207D002F58062904203D002F5806249
:1017A000904203D1CA6823F4407313434A6923F07B
:1017B0008003134303608B68C3620B688362064B2C
:1017C000984203D003F58063984201D10B6903630B
:1017D00001234361704700BF000001400040014009
:1017E00010B50446A0B190F83D3003F0FF021BB9DC
:1017F00080F83C20FFF7D6FE022384F83D302068B5
:10180000211DFFF787FF012384F83D30002010BD24
:10181000012010BD704770472DE9F0470668C26887
:101820003369C16923F44053134333610446836829
:101830000069F2680343606922F41642034322F010
:101840000C020B431343F3607369A26923F44073E2
:101850001343B1F5004F73617A4B7CD19E4203D0A4
:1018600003F580639E4244D1FFF76EFE192505FB08
:1018700000F360684FF064094000B3FBF0F3B3FB82
:10188000F9F34FEA0318FFF75FFE636868435B00F4
:10189000B0FBF3F7FFF758FE636868435B00B0FBEB
:1018A000F3F3B3FBF9F309FB1373DB003233B3FB40
:1018B000F9F35B0003F4F877FFF746FE62686843CC
:1018C0005200B0FBF2FAFFF73FFE636868435B002B
:1018D000B0FBF3F3B3FBF9F309FB13A3DB003233E3
:1018E000B3FBF9F303F0070343443B44B360BDE8A3
:1018F000F087FFF719FE192505FB00F360684FF02C
:1019000064094000B3FBF0F3B3FBF9F34FEA0318AB
:10191000FFF70AFE636868435B00B0FBF3F7FFF76D
:1019200003FE636868435B00B0FBF3F3B3FBF9F3BA
:1019300009FB1373DB003233B3FBF9F35B0003F4F1
:10194000F877FFF7F1FD626868435200B0FBF2FAE6
:10195000FFF7EAFDB9E79E4202D03B4B9E4240D1E1
:10196000FFF7F2FD676819254FF0640905FB00F3E6
:10197000BF00B3FBF7F3B3FBF9F31F01FFF7E4FD7F
:10198000636868439B00B0FBF3F8FFF7DDFD636815
:1019900068439B00B0FBF3F3B3FBF9F309FB13833C
:1019A0001B013233B3FBF9F303F0F008FFF7CCFD72
:1019B000626868439200B0FBF2FAFFF7C5FD636806
:1019C00068439B00B0FBF3F3B3FBF9F309FB13A3EC
:1019D0001B013233B3FBF9F303F00F0343EA0803AF
:1019E00083E7FFF7A1FD676819254FF0640905FB40
:1019F00000F3BF00B3FBF7F3B3FBF9F31F01FFF7ED
:101A000093FD636868439B00B0FBF3F8FFF78CFD20
:101A1000636868439B00B0FBF3F3B3FBF9F309FB86
:101A200013831B013233B3FBF9F303F0F008FFF724
:101A30007BFD626868439200B0FBF2FAFFF774FD29
:101A4000BDE700BF001001400014014010B504467E
:101A500040B390F8393003F0FF021BB980F838200A
:101A600007F098FD2268242384F83930D36823F4E2
:101A70000053D3602046FFF7CFFE23681A6922F493
:101A800090421A615A6922F02A025A61DA6842F4D5
:101A90000052DA6000202023E06384F8393084F8B3
:101AA0003A3010BD012010BD0A4B013B01D103208B
:101AB00070470269002AF8DA0369064A43F0010315
:101AC0000361013AF3D0036913F00103F9D1184619
:101AD000704700BF410D030084B038B505AD85E8FF
:101AE0000E000A9B012B044625D1836B23F480331F
:101AF0008363C36823F4840323F04003C360C36893
:101B000023F44013C360119B012B02BFC36843F44D
:101B10008013C360FFF7C8FF089B012B07D1A368A0
:101B200043F00603A360A36843F02003A360BDE86D
:101B3000384004B07047C36843F04003C360FFF708
:101B4000B3FF0E9B23B9A36B43F48033A363E3E796
:101B5000A36B23F48033F9E7836823F001038360E8
:101B60000020704708B5C368012923F0C043C36053
:101B700008D1C36843F00053C3603220FEF7ECFC89
:101B8000002008BD19B9C36843F08043F4E7012081
:101B900008BD0000890141F02001064A0161013AB7
:101BA00005D0036913F02003F9D1184670470320CC
:101BB000704700BF410D03001023064A0361013A3C
:101BC00005D0036913F01003F9D1184670470320BC
:101BD000704700BF410D0300D0F800381943C0F82A
:101BE000001800207047000084B02DE9F04704463B
:101BF00009A880E80E0000230C9F139E8846194612
:101C000003F1400204EB820201330F2B5160F7D144
:101C1000002E73D1A36B43F40013A363A36B23F4CF
:101C20000023A363A36B23F48023A3630023C4F8DE
:101C3000003ED4F80038C4F800380E9B012B04F5A0
:101C4000006565D10B99002960D12046FFF7C4FFDC
:101C500010212046FFF79EFF01462046FFF7ACFF0C
:101C6000002857D1081C18BF012000232B6104F560
:101C700010626B611946EB614FF0904E4FF0006CB3
:101C80004FF67F39434547D1002104F530628E4637
:101C90004FF0904C4FF000684FF67F398B424ED199
:101CA0002B69012F23F480732B6107D12E4B2B63FB
:101CB0002B6B43F4803343F003032B630023A361B6
:101CC0006FF0804363611FB9A36943F01003A36100
:101CD000A269264B1343A3610F9B1BB1A36943F079
:101CE0000803A361012E01BFA36943F0804343F0C1
:101CF0000403A361BDE8F04704B07047236823F4F0
:101D000000132360A36B43F400238EE719469CE77E
:101D100003219AE70120A8E7D2F800A0BAF1000F4A
:101D20000BDA3BB9C2F800C011610133C2F8089068
:101D30002032A7E7C2F800E0F6E71160F4E7D2F836
:101D400000A0BAF1000F0CDA41B9C2F80080C2F865
:101D500010E00131C2F8089020329FE7C2F800C0BD
:101D6000F5E7C2F800E0F2E70001800000383C80AF
:101D700008B5D0F8043843F00203C0F80438032053
:101D8000FEF7EAFB002008BD08B501F033FA002099
:101D900008BDEFF305830BB101F070BA01F068BA2A
:101DA00070B5054646692A694068B5F908400B4692
:101DB00086B0296876B1AD6965B1842C14BF03344F
:101DC000002402958DE8500001F0B0F905900598C7
:101DD00006B070BD842C14BF0334002405AD92B24C
:101DE0008DE8300001F0D9F90128F0D00020EFE7AC
:101DF00008B5002808BF012001F01CFB002008BD29
:101E00004168012009B100F0DEBD00F0D1BD000045
:101E100013B500240194E0B1EFF30583A3B101AA47
:101E2000214600F0E5FF012802D0FF2002B010BDDE
:101E3000019B3BB1084B4FF080521A60BFF34F8FAC
:101E4000BFF36F8F0020F1E700F01AFF0128ECD1FB
:101E5000F8E78020EAE700BF04ED00E037B544680A
:101E60000D466CB101291BD10323002200932846A3
:101E70002346114600F07BFC0546284603B030BDE2
:101E800001290FD128460322214600F0B9FC05465E
:101E90000028F2D023462246214600F0D5FCECE78C
:101EA0000025EAE72546E8E713B500240194E0B1F0
:101EB000EFF30583A3B101AA214600F099FF0128A1
:101EC00002D0FF2002B010BD019B3BB1084B4FF088
:101ED00080521A60BFF34F8FBFF36F8F0020F1E77E
:101EE00000F0CEFE0128ECD1F8E78020EAE700BF41
:101EF00004ED00E013B500240194EFF3058393B1E2
:101F000001A900F0D0FD012813D1019B13B90020D5
:101F100002B010BD084B4FF080521A60BFF34F8FD4
:101F2000BFF36F8FF3E71A46194600F08DFC0128C6
:101F3000EDD0FF20ECE700BF04ED00E0FFF7DABFD3
:101F400007B582684AB1C3683BB10021009103C85C
:101F500000F00DFC03B05DF804FB03C8002203B0E1
:101F60005DF804EB00F04CBC1FB500240191039414
:101F7000A24208BF0122EFF30583ABB1234603AAB7
:101F800001A900F02EFD012802D0FF2004B010BDF1
:101F9000039B3BB1074B4FF080521A60BFF34F8F4A
:101FA000BFF36F8F0020F1E701A900F04DFC01287D
:101FB000EBD1F7E704ED00E0F0B585B0002604466C
:101FC000174608460391029601AD11B9802301938B
:101FD00017E00096EFF30583D3B16A4602A900F03B
:101FE00007FF012804BF10230193009B18BF01962F
:101FF0003BB10D4B4FF080521A60BFF34F8FBFF3D0
:102000006F8F95E8070084E80700204605B0F0BD13
:1020100002A900F09DFD012801D11023D7E7002F70
:102020000CBF00234023D2E704ED00E000F10803D9
:1020300043604FF0FF32C36003610023826003609E
:10204000704700230361704743684B609A688A6059
:102050009A685160996003680861013303607047B2
:102060000A68531C30B50AD103695A684A60916006
:102070008B605960036808610133036030BD00F173
:1020800008035C682568AA42EFD32346F9E7416854
:10209000826803698A60826851605968884208BF13
:1020A0005A60002202611A68013A1A601868704783
:1020B00082B0002301930D4B1B68013308D04FF011
:1020C000500383F31188BFF36F8FBFF34F8FFEE789
:1020D0004FF0500383F31188BFF36F8FBFF34F8F1F
:1020E000019B002BFCD002B0704700BF0400002011
:1020F00008480068006880F308884FF0000080F30B
:10210000148862B661B6BFF34F8FBFF36F8F00DFE5
:1021100000BF000008ED00E0DFF80C00016841F4AA
:10212000700101607047000088ED00E04FF080739F
:1021300040F8043C074B40F80C3C21F001016FF0E3
:10214000020340F8081C40F8202C40F8243C443896
:10215000704700BFB1200008000000000000000030
:10216000074B19680868B0E8F04F80F30988BFF39F
:102170006F8F4FF0000080F311887047AFF300803D
:102180004C3C00204FF0500383F31188BFF36F8F56
:10219000BFF34F8F0A4A13680133012B13600DD12F
:1021A000084B1B6813F0FF0F08D04FF0500383F368
:1021B0001188BFF36F8FBFF34F8FFEE7704700BFEB
:1021C0000400002004ED00E0084A136843B94FF012
:1021D000500383F31188BFF36F8FBFF34F8FFEE778
:1021E000013B13600BB983F3118870470400002092
:1021F000EFF30980BFF36F8F154B1A681EF0100FB5
:1022000008BF20ED108A20E9F04F10602DE9090089
:102210004FF0500080F31188BFF34F8FBFF36F8FE3
:1022200001F02CF94FF0000080F3118809BC196807
:102230000868B0E8F04F1EF0100F08BFB0EC108A2D
:1022400080F30988BFF36F8F704700BFAFF3008042
:102250004C3C002008B54FF0500383F31188BFF3C6
:102260006F8FBFF34F8F01F011F818B1034B4FF090
:1022700080521A60002383F3118808BD04ED00E04A
:10228000084A0949002313600B60084B4FF47A7128
:102290001B68B3FBF1F30649013B0B600723136096
:1022A000704700BF10E000E018E000E00C000020E4
:1022B00014E000E0394B3A4A13B51968914208D14D
:1022C0004FF0500383F31188BFF36F8FBFF34F8F2D
:1022D000FEE71A68334B9A4208D14FF0500383F35C
:1022E0001188BFF36F8FBFF34F8FFEE72E4B1A7825
:1022F000D2B20192FF221A701B782C4ADBB28DF801
:1023000003309DF8033003F050031370284B07226D
:102310001A6000219DF80300000602F1FF340DD47D
:1023200001B11A601A68032A11D04FF0500383F3E9
:102330001188BFF36F8FBFF34F8FFEE79DF8032027
:102340005200D2B28DF8032001212246E2E71202A8
:1023500002F4E0621A60019B134ADBB21370154B62
:102360001A6842F470021A601A6842F070421A60E9
:10237000FFF786FF104B00241C60FFF7CDFE0F4ACD
:10238000136843F040431360FFF7B2FE01F076F8A4
:10239000FFF78EFE204602B010BD00BF00ED00E04A
:1023A00071C20F4170C20F4100E400E02C00002018
:1023B0003000002020ED00E00400002034EF00E0B9
:1023C000EFF305830F2B0ED9104A9B5C104A12784D
:1023D0009A4208D94FF0500383F31188BFF36F8FEF
:1023E000BFF34F8FFEE70B4B0B4A1B68126803F4D9
:1023F000E063934208D94FF0500383F31188BFF391
:102400006F8FBFF34F8FFEE7704700BFF0E300E030
:102410002C0000200CED00E03000002010B50F4B28
:102420001A68824218D35C681919884201BF416852
:10243000184609195960446801198A4207D10849A8
:1024400009688A421FBF51681268091941609842A1
:10245000026018BF186010BD1346E1E7443C00203D
:10246000340000202DE9F041044600F0F9FE3E4919
:102470003E4D0B680BBB3E4A56071FBFD01D20F0D8
:10248000070002F570531B1A14BF02464FF4705335
:102490001344083B23F00703364E0B6000207060A6
:1024A000326058601860981A1360334B506018609F
:1024B000324B18604FF000432B602F68274216D133
:1024C000002C41D004F1080358071CBF23F0070378
:1024D000083363B1294A1668B342904607D8254AA3
:1024E00015686868834204D809688D4207D10024C2
:1024F0002AE02C68002CF7D02A462546F1E7296807
:1025000014681160C21A102A0FD9E818410708D0C0
:102510004FF0500383F31188BFF36F8FBFF34F8FDA
:10252000FEE742606B60FFF779FF13496B6808684C
:10253000F61A1F4386424FF00003C8F8006038BF08
:102540000E6008346F602B6000F00CFF630708D04A
:102550004FF0500383F31188BFF36F8FBFF34F8F9A
:10256000FEE72046BDE8F08134000020383C002022
:1025700038000020443C0020403C00203C3C00202F
:1025800010B5044670B3184A50F8043C1268134260
:1025900008D14FF0500383F31188BFF36F8FBFF35F
:1025A0004F8FFEE750F8081C41B14FF0500383F302
:1025B0001188BFF36F8FBFF34F8FFEE723EA02034B
:1025C00040F8043C00F04CFE084A54F8043C116802
:1025D000A4F108000B441360FFF720FFBDE8104092
:1025E00000F0C0BE10BD00BF383C00203C3C0020C5
:1025F00010B50446FFF7C6FDA46BFFF7E5FDB4FA7E
:1026000084F0400910BD70B51546026C866B044617
:1026100042B905689DB9406801F078F865600136F7
:10262000A66370BD6DB9806807F0A7F8A368226C37
:1026300013446268A360934201D32368A36000201F
:10264000EDE7C06807F099F8236CE26821685B4207
:102650001A448A42E2603EBF62689B18E360022D22
:10266000EDD10EB1013EEAE73046D8E7034610B49B
:102670001A6C084662B1D9685C681144A142D960FD
:1026800024BF1968D960D9685DF8044B07F075B8A4
:102690005DF8044B704770B50446FFF773FD94F87E
:1026A000455004F124066DB2002D14DCFF2384F89C
:1026B0004530FFF789FDFFF765FD94F8445004F1BC
:1026C00010066DB2002D12DCFF2384F84430BDE803
:1026D0007040FFF779BD636A002BE7D0304600F009
:1026E00021FF08B100F0A8FF013D6DB2DCE72369CE
:1026F000002BE9D0304600F015FF08B100F09CFF38
:10270000013D6DB2DEE738B50D46044640B94FF0E5
:10271000500383F31188BFF36F8FBFF34F8FFEE732
:10272000FFF730FD206CE36B2268A2604343D118B1
:102730001B1A13446160E3600021FF23A16384F846
:10274000443084F845304DB923691BB104F11000C1
:1027500000F0E8FEFFF738FD012038BD04F110005D
:10276000FFF764FC04F12400FFF760FCF2E713B507
:102770001C4640B94FF0500383F31188BFF36F8FAD
:10278000BFF34F8FFEE743B94FF0500383F3118837
:10279000BFF36F8FBFF34F8FFEE74AB1D9B94FF048
:1027A000500383F31188BFF36F8FBFF34F8FFEE7A2
:1027B00089B14FF0500383F31188BFF36F8FBFF3DC
:1027C0004F8FFEE74FF0500383F31188BFF36F8FF5
:1027D000BFF34F8FFEE748230193019B482BF1D1B4
:1027E0000123002908BF2246E063216484F84630B3
:1027F000226019462046FFF786FF204602B010BD32
:1028000070B50D46064640B94FF0500383F311886A
:10281000BFF36F8FBFF34F8FFEE748434830FFF79A
:1028200021FE044650B1002380F8463045B92060AF
:10283000E663256401212046FFF765FF204670BD51
:1028400000F148030360F3E72DE9FF478946019251
:102850001F46044640B94FF0500383F31188BFF37D
:102860006F8FBFF34F8FFEE700297CD1036C002BE5
:1028700079D04FF0500383F31188BFF36F8FBFF30C
:102880004F8FFEE7019E002E77D04FF0500383F369
:102890001188BFF36F8FBFF34F8FFEE7019D1DB906
:1028A000FFF792FC00204FE016B902A800F07CFE72
:1028B000FFF78AFC00F0D4FCFFF764FC94F8443086
:1028C000FF2B08BF84F8448094F84530FF2B08BFE5
:1028D00084F84580FFF778FC01A902A800F070FE9B
:1028E00000283AD1FFF74EFCA66BE56BFFF76CFCB6
:1028F000AE422CD1019904F1100000F0F9FD204600
:10290000FFF7C9FE00F02EFD38B94FF08053CAF82A
:102910000030BFF34F8FBFF36F8F0126FFF732FCFC
:10292000A26BE36B9A4201D3022FB7D13A464946D4
:102930002046FFF768FE636A1BB104F1240000F033
:10294000F1FDFFF741FC012004B0BDE8F08720460F
:10295000FFF7A1FE00F006FDDFE72046FFF79BFE34
:1029600000F000FD9EE7022F02D1E36B012B09D19D
:1029700000F068FE002885D000264FF00008DFF840
:1029800018A0CBE74FF0500383F31188BFF36F8F8C
:10299000BFF34F8FFEE700BF04ED00E038B1002326
:1029A00043600360C3601A461946FFF74DBF704786
:1029B00010B5024600210120FFF722FF0446FFF771
:1029C000EDFF204610BD13B500220B4600901146C6
:1029D0000120FFF7CCFE0446FFF7E0FF204602B0DF
:1029E00010BD2DE9F843884691461F46044640B97C
:1029F0004FF0500383F31188BFF36F8FBFF34F8FF6
:102A0000FEE709BB036CFBB14FF0500383F3118861
:102A1000BFF36F8FBFF34F8FFEE704F1240000F088
:102A200081FD002834D0B9F1000F31D00120C9F860
:102A3000000086F31188BDE8F88301356DB284F893
:102A4000455025E00020F4E7022F02D1E36B012B73
:102A500020D1FFF7B5FCEFF311864FF0500383F35D
:102A60001188BFF36F8FBFF34F8FA26BE36B9A4256
:102A700001D3022FE6D194F845503A466DB2414653
:102A80002046FFF7C0FD6B1CD7D1636A002BC4D171
:102A90000120CEE74FF0500383F31188BFF36F8F0F
:102AA000BFF34F8FFEE770B50D46044640B94FF0B7
:102AB000500383F31188BFF36F8FBFF34F8FFEE78F
:102AC000036C43B14FF0500383F31188BFF36F8F52
:102AD000BFF34F8FFEE703680BB9436873BBFFF783
:102AE0006FFCEFF311864FF0500383F31188BFF3AF
:102AF0006F8FBFF34F8FA26BE36B9A4201D300201D
:102B000014E094F8453001325BB2A2635A1C10D134
:102B1000636A0BB9012009E004F1240000F002FD12
:102B20000028F7D0002DF5D00120286086F3118809
:102B300070BD01335BB284F84530EBE74FF05003D2
:102B400083F31188BFF36F8FBFF34F8FFEE7000051
:102B50002DE9F04385B088460192044640B94FF014
:102B6000500383F31188BFF36F8FBFF34F8FFEE7DE
:102B700000297AD1036C002B77D04FF0500383F3F8
:102B80001188BFF36F8FBFF34F8FFEE7019E002EBA
:102B900070D04FF0500383F31188BFF36F8FBFF3F2
:102BA0004F8FFEE7019D1DB9FFF70EFB002048E0A7
:102BB00016B902A800F0F8FCFFF706FB00F050FB86
:102BC000FFF7E0FA94F84430FF2B08BF84F8447014
:102BD00094F84530FF2B08BF84F84570FFF7F4FAEE
:102BE00001A902A800F0ECFCA0BB2046FFF700FD05
:102BF00050B3019904F1240000F07AFC2046FFF75D
:102C00004AFD00F0AFFB38B94FF08053C9F80030EF
:102C1000BFF34F8FBFF36F8F0126FFF7B3FAA56B9A
:102C2000002DBFD041462046013DFFF71FFDA563A3
:102C300023691BB104F1100000F074FCFFF7C4FA23
:102C4000012005B0BDE8F0832046FFF724FD00F029
:102C500089FBE1E72046FFF71EFD00F083FB2046DD
:102C6000FFF7C6FC0028D7D0A0E700F0EBFC002857
:102C70008CD000260027DFF80490CEE704ED00E0BA
:102C80002DE9FF410446019140B94FF0500383F311
:102C90001188BFF36F8FBFF34F8FFEE7056C45B10F
:102CA0004FF0500383F31188BFF36F8FBFF34F8F43
:102CB000FEE700F0C7FC18B9019D002D40F08C80A4
:102CC000DFF828812E460027FFF75CFAA36B9BB143
:102CD000013BA363236813B900F0C2FD6060236960
:102CE0001BB104F1100000F01DFCFFF76DFA012587
:102CF000284604B0BDE8F081019B63B945B14FF0AF
:102D0000500383F31188BFF36F8FBFF34F8FFEE73C
:102D1000FFF75AFAECE716B902A800F045FCFFF7F6
:102D200053FA00F09DFAFFF72DFA94F84430FF2B88
:102D300008BF84F8447094F84530FF2B08BF84F82E
:102D40004570FFF741FA01A902A800F039FC40BB29
:102D50002046FFF74DFCF0B123683BB9FFF712FAAC
:102D6000606800F07FFC0546FFF72EFA019904F138
:102D7000240000F0BDFB2046FFF78DFC00F0F2FAC6
:102D800038B94FF08053C8F80030BFF34F8FBFF30E
:102D90006F8F012698E72046FFF77DFC00F0E2FAEE
:102DA000F7E72046FFF777FC00F0DCFA2046FFF754
:102DB0001FFC0028EDD0002D9AD0FFF7E3F9616ADF
:102DC00019B1236B1968C1F10701606800F0EEFCCE
:102DD0000025FFF7F9F98BE74FF0500383F31188D3
:102DE000BFF36F8FBFF34F8FFEE700BF04ED00E02E
:102DF0002DE9F84389469046054640B94FF0500307
:102E000083F31188BFF36F8FBFF34F8FFEE771BB62
:102E1000036C63B34FF0500383F31188BFF36F8FDC
:102E2000BFF34F8FFEE795F84460494676B22846D7
:102E3000FFF71CFC013C731CAC6313D12B690BB96D
:102E400001200BE005F1100000F06CFB0028F7D02A
:102E5000B8F1000FF4D00120C8F8000087F3118802
:102E6000BDE8F883013676B285F84460E8E7FFF7FD
:102E7000A7FAEFF311874FF0500383F31188BFF3E4
:102E80006F8FBFF34F8FAC6B002CCCD12046E5E7A2
:102E90002DE9F0410646FFF775F9274B274C1A68D4
:102EA000274F01321A602568002D39D126601B6832
:102EB000012B1CD178191435FFF7B8F88C2DF9D1F6
:102EC000DFF8A4801F4D4046FFF7B0F82846FFF713
:102ED000ADF81D48FFF7AAF81C48FFF7A7F81C48F3
:102EE000FFF7A4F81B4BC3F800801B4B1D601B4A67
:102EF0001B491368086801331360F26A0123934089
:102F0000034314200B6000FB0270311DFFF79CF897
:102F1000FFF75AF9134B1B6803B12368BDE8F08132
:102F2000104B1B68002BE2D12368DA6AF36A9A42DD
:102F300098BF2660DBE700BFE43C00204C3C00204B
:102F4000583C0020103D00202C3D0020583D002022
:102F5000443D0020503C0020543C0020F43C002024
:102F6000F83C0020403D0020FC3C0020064A13684D
:102F70001968064B19B94FF0FF321A607047126892
:102F8000D268D2685268F8E7503C0020243D002007
:102F90002DE9F0470A9CDDF82480266B02F180427F
:102FA000013A06EB82069A4681464B1E26F007063A
:102FB00004F134020F31587802F8010B13F8010FB5
:102FC00008B18B42F7D1089D062D28BF06250027A2
:102FD000E5626564201D84F84370A764FFF731F84B
:102FE000C5F1070504F11800FFF72BF8E764246129
:102FF000A561646284F85070524649463046FFF736
:1030000095F82060B8F1000F01D0C8F80040BDE885
:10301000F08710B590F8513004463BB9006BFFF7CC
:10302000AFFA2046BDE81040FFF7AABA012BF9D04D
:10303000022B08D04FF0500383F31188BFF36F8F3A
:10304000BFF34F8FFEE710BD80B5DFF85080104F03
:10305000104C114D236843B94FF08053C8F800302D
:10306000BFF34F8FBFF36F8FF2E7FFF78BF8FB686B
:10307000DE68301DFFF70BF82B68013B2B602368DF
:10308000013B2360FFF7A0F83046FFF7C2FFE1E7FE
:10309000583D0020E83C0020E43C002004ED00E026
:1030A000F8B51B4B1B4E1D680446306804300F46B4
:1030B000FEF7EDFF334640B93168174EC96A3268F2
:1030C0000120884022EA00023260621C07D137B139
:1030D000196812480431BDE8F840FEF7B5BF2C442A
:1030E0001A68A542546007D90D4A10681968BDE8EE
:1030F000F8400431FEF7B4BF0A4A10681968043179
:10310000FEF7AEFF084B1A68944238BF1C60F8BD4A
:103110006C3D00204C3C0020F83C0020443D002049
:10312000543C0020503C0020243D002070B586B067
:103130000B9D0C9C45B94FF0500383F31188BFF3EE
:103140006F8FBFF34F8FFEE744B94FF0500383F307
:103150001188BFF36F8FBFF34F8FFEE7542604969D
:10316000049E542E08D04FF0500383F31188BFF310
:103170006F8FBFF34F8FFEE72563022584F8515010
:1031800005AD01950A9D02940095FFF701FF2046C9
:10319000FFF77EFE059806B070BD2DE9F0430746A7
:1031A00085B09000884616469946FFF75BF90546BC
:1031B000E8B15420FFF756F90446A8B1002380F87F
:1031C00051300D9B056301930C9B02900093324696
:1031D0004B4641463846FFF7DBFE2046FFF758FED8
:1031E000012005B0BDE8F0832846FFF7C9F94FF08C
:1031F000FF30F6E710B588B0002407AA06A905A895
:103200000594069405F080FE059B0293069B0193AE
:1032100000942346079A0D490D48FFF787FF90B1A8
:103220004FF0500383F31188BFF36F8FBFF34F8FBD
:10323000084B4FF0FF321A60074B01221A60074B10
:103240001C60FFF737F808B010BD00BFF09700080A
:1032500049300008243D0020403D00206C3D002006
:10326000024A136801331360704700BFF03C00202E
:10327000014B1868704700BF6C3D002008B5FFF790
:103280009FF8014B186808BD6C3D00202C4B1B6853
:103290002DE9F047002B2CD12A4B1C6801341C600F
:1032A000BCB9294B1A68126842B14FF0500383F33E
:1032B0001188BFF36F8FBFF34F8FFEE7234A196862
:1032C000106818601160224A136801331360FFF719
:1032D0004DFE204D2B689C420FD31B4FDFF87C80A6
:1032E000DFF87CA03B681B6853B94FF0FF332B60BD
:1032F00003E0194A1368013313600020BDE8F0872A
:103300003B68DB68DE6873689C42F0D306F1040911
:103310004846FEF7BCFEB36A1BB106F11800FEF783
:10332000B6FEF26AD8F800100123934014200B4334
:1033300000FB02A04946C8F80030FEF785FED1E741
:10334000F03C00206C3D0020503C0020543C00200C
:10335000283D0020243D0020EC3C0020F83C0020CB
:10336000583C00202DE9F8432A4C236843B94FF01C
:10337000500383F31188BFF36F8FBFF34F8FFEE7C6
:10338000FEF700FF2368013B23602468DCB9224B71
:103390001B68C3B1DFF89490204FDFF89480D9F810
:1033A0000030ABB90CB1FFF7E1FD1D4D2C6844B105
:1033B0001C4E0127FFF76AFF00B13760013CF9D1CD
:1033C0002C60184B1B68FEF7FFFE0020BDE8F88359
:1033D000D9F80C30DC68261D04F11800FEF757FE02
:1033E0003046FEF754FEE26A3968012505FA02F319
:1033F00014200B4300FB028031463B60FEF724FEA5
:10340000094BE26A1B68DB6A9A4224BF054B1D60C8
:10341000C5E700BFF03C0020E43C0020F83C002061
:10342000EC3C0020703D00204C3C00202C3D002056
:10343000583C002008B540B90E4B4FF080521A603E
:10344000BFF34F8FBFF36F8F08BD0B4B196841B1AE
:103450004FF0500383F31188BFF36F8FBFF34F8F8B
:10346000FEE7FFF7FDFEFFF71BFEFFF77BFF0028DF
:10347000E2D008BD04ED00E0F03C0020174B1A68D4
:10348000174B10B512B101221A6010BD1A60154B0E
:103490001B68B3FA83F3DBB2C3F11F031422124992
:1034A0005A4388188C5844B94FF0500383F311885D
:1034B000BFF36F8FBFF34F8FFEE744680832646835
:1034C00044600A44944204BF62684260142202FBD2
:1034D00003135B68DA68054BD6E700BFF03C0020B9
:1034E000703D0020F83C0020583C00204C3C00205F
:1034F00010B50C4640B94FF0500383F31188BFF369
:103500006F8FBFF34F8FFEE7054B19681831FEF739
:10351000A7FD20460121BDE81040FFF7C1BD00BF57
:103520004C3C002038B5C368DC6844B94FF0500308
:1035300083F31188BFF36F8FBFF34F8FFEE704F162
:1035400018052846FEF7A3FD114B1B68E3B9251D9E
:103550002846FEF79CFD0F49E26A08680123934064
:1035600003430B600C4B1420294600FB0230FEF78E
:103570006BFD0A4BE26A1B68DB6A9A4283BF084B09
:1035800001201860002038BD29460648EFE700BF3B
:10359000F03C0020F83C0020583C00204C3C00202F
:1035A000703D00202C3D0020034B1B680360034B43
:1035B0001B684360704700BF283D00206C3D002021
:1035C00070B50C46054640B94FF0500383F311889F
:1035D000BFF36F8FBFF34F8FFEE741B94FF050033A
:1035E00083F31188BFF36F8FBFF34F8FFEE7FEF7B2
:1035F000C9FD0F4B69681A682368581C0ED00D4826
:103600002E680068864201D08A420ED2521A9A422F
:1036100009D29B1A23602846FFF7C6FF0024FEF755
:10362000D3FD204670BD002323600124F7E700BFCF
:103630006C3D0020283D0020014B01221A6070479C
:10364000703D0020054B1B6833B1054B1B68002BF8
:103650000CBF02200020704701207047403D002031
:10366000F03C00202DE9F0410446002841D0244AD6
:10367000C36A1168C96A8B42174631D28269214DEB
:10368000002AA1BF3A68D26AC2F1070282611426F9
:10369000426906FB03539A422DD100F104084046CB
:1036A000FEF7F5FC184B48B9E06A4643AA592AB917
:1036B0001A680121814022EA01021A603A681968F9
:1036C000D26AE262012404FA02F00843186014206E
:1036D000414600FB0250FEF7B7FC0120BDE8F08137
:1036E0001368406CDC6AA0422CBF00200120BDE8BA
:1036F000F081BDE8F0813B68DB6AC362EDE700BFA3
:103700004C3C0020583C0020F83C0020F8B5044612
:1037100008B90020F8BD224B1B68984208D04FF032
:10372000500383F31188BFF36F8FBFF34F8FFEE712
:10373000836C43B94FF0500383F31188BFF36F8F4D
:10374000BFF34F8FFEE7C16A426C013B9142836435
:10375000DFD0002BDDD1051D2846FEF798FC114E69
:10376000114A50B9E76A1421794373582BB9136889
:103770000120B84023EA00031360636CE362C3F1E5
:103780000701A1611168012404FA03F008431060E5
:10379000142000FB03602946FEF756FC2046F8BDC6
:1037A0004C3C0020583C0020F83C0020F8B5044672
:1037B00000284DD0826C42B94FF0500383F311883A
:1037C000BFF36F8FBFF34F8FFEE7436C994238BF53
:1037D0001946C36A8B423BD0012A39D11D4A12686F
:1037E000904208D14FF0500383F31188BFF36F8FDD
:1037F000BFF34F8FFEE78269174DC162002A4FF079
:1038000014064269A8BFC1F1070106FB0353A8BF14
:1038100081619A421CD1071D3846FEF738FCE26AE6
:103820000E4C40B95643AB592BB923680121914046
:1038300023EA010323602168012393400B431420F2
:103840002360394600FB0250BDE8F840FEF7FCBBA0
:10385000F8BD00BF4C3C0020583C0020F83C002044
:10386000044B1A681AB119688A6C01328A641868A4
:10387000704700BF4C3C00201E4B1B6883B513B142
:103880001D4A106898471D4F1D4D1E4C01A9384612
:1038900004F010FF019B33B92B46692221461A48D8
:1038A00005F01DFEF2E71A78042A20D8DFE802F0BE
:1038B0001B030D151B009E685B68304698473070EF
:1038C000019BD86805F0BFF8E0E7181D07C89047CE
:1038D0000199092001F004FDD8E798685A689047DB
:1038E00001990820F6E75A6898689047CEE72B467A
:1038F0009B22D3E7783D00207C3D0020743D0020D2
:10390000329800086298000880980008F8B50746C9
:1039100010480E46154605F091F828B90E4B0F4990
:103920000F48B52205F0DBFD092001F0BDFC04467F
:1039300068B10223037047608660C5600146054890
:1039400005F050F828B12146092001F0C9FC4FF0DC
:10395000FF30F8BD743D002032980008259800081B
:103960008098000891F82B3013F0180F14BF024A0A
:10397000024AFFF7CBBF00BFA1880008C54300087B
:10398000F8B5074612480E46154605F057F828B90F
:10399000104B11491148EE2205F0A1FD082001F05D
:1039A00083FC044688B103230370476086600146A8
:1039B00007481DB105F00AF80020F8BD05F012F81F
:1039C00028B12146082001F08BFC4FF0FF30F8BDF4
:1039D000743D00203298000825980008809800085F
:1039E00037B505460C4600F030F80D4B0D481D600C
:1039F0000D4B06211C6004F0D7FF30B10B4B0C4976
:103A00000C4840F2D51205F06AFD03230093002212
:103A10004FF480630849094805F03BF803B030BD16
:103A2000783D0020743D00207C3D00203298000845
:103A3000F597000880980008793800081898000861
:103A400040BA80B2704700BA704708B504F0FEFF74
:103A500001F0B6F901F01AFC01F065FC04F070FE0B
:103A600002F0D8F8BDE8084004F0FABD70B5182699
:103A7000074C46430546A05918B101F0B7FD002395
:103A8000A351182303FB05440023237570BD00BF19
:103A9000803D00202DE9F3470B9D894692469846CC
:103AA000074630B92C4B2D492D484FF48B6205F059
:103AB00016FD00221C21022001F002FE064600280D
:103AC00047D043891B2B06D8234B2649244840F274
:103AD000644205F004FDBDF834007468FFF7B0FFE0
:103AE000E08097F82430062B06D01B4B1E491C485B
:103AF00040F26B4205F0F3FCD8F80030A360B8F850
:103B00000430A3812B68C4F81230AB88E3820A9B8F
:103B10001B68C4F80E300C9B1B68A3610123637003
:103B20000823A3700623237104230025637140F644
:103B300006032570E5704A460093314653463846E1
:103B400004F0FAFE304601F051FD284602B0BDE80F
:103B5000F0874FF0FF30F9E79D990008D4990008ED
:103B600080980008E2990008139A00082DE9F74FA1
:103B70003E4B01910A220546002094461446814698
:103B80008046834696461E46BEF10A0F1F7D12D11F
:103B90009FB94FFA80FE01300A2803F11803F3D1D0
:103BA000019B990704D4BEF10A0F1CD1DB0735D461
:103BB0004FF0FF3009E0002FEDD0002D4AD02968EA
:103BC0008A4659688A4545D140B203B0BDE8F08FB6
:103BD000C245E0D34FFA80FCD046DCE7CA4524BF9B
:103BE00044B2D146D7E75FFA8EF7182303FB076389
:103BF0001B7D33B11E4B1F491F4840F2871205F051
:103C00006EFC25B1182303FB07632A685A6018234A
:103C100003FB07660023738278B2D6E70A2C0FD025
:103C20001823E7B25C43335933B1114B134912489F
:103C300040F26F1205F053FC3846FFF717FFD4E748
:103C4000BCF10A0F02D05FFA8CF7F5E70A2AAFD071
:103C5000D7B2F1E7012FB3F812A0BFD11F68002F30
:103C6000B6D0DA4597D342B2D34694E7803D0020E0
:103C70009D990008BF98000880980008A89800083F
:103C800070B5084D064600242B7D2BB1AB68B342BE
:103C900002D12046FFF7EAFE01340A2C05F118058F
:103CA000F2D170BD803D00202DE9F047804686B0FE
:103CB0000C4649B9464B474947484FF4227205F034
:103CC0000EFC06B0BDE8F08745682B88B3F5807F11
:103CD00008D12B79062B05D16B79042B02D16B8887
:103CE000082B03D0404601F081FCEAE74E68D5F886
:103CF0000E300593AB6916B19B1B5E425E4194F892
:103D00002430002E14BF4FF001094FF00209062B9A
:103D100005F1080706D02E4B30492F4840F2AB1270
:103D200005F0DDFB059800283CD0214600F095FC0D
:103D30008246B8BB059B03F0F003E02B32D0494626
:103D400005A8FFF713FF00282CDB254B182202FBE8
:103D500000F103EB010E4FF0020C8EF814C04FF08F
:103D60000C0CCEF8084012FB00C23868985003EBE8
:103D7000020CBA88ACF8042053F80190AEF812A0F7
:103D8000B9F1000F0ED043F801A04FF40063009387
:103D900004F125023B464946204604F0CDFD484645
:103DA00001F024FCEB88B3F5807F9BD1002E99D0E5
:103DB0000222039205AA04F125030292221D009219
:103DC00001973A4619462046FFF764FE8AE700BF8E
:103DD0009D990008D4990008809800080799000868
:103DE000803D00201FB5024600F125030291012409
:103DF00005490191043200920394044A1946FFF7E1
:103E000049FE04B010BD00BF04AD000898AC000826
:103E1000F8B5134C002502260427227C6AB1E389F9
:103E200001339BB2B3F5967FE38103D2012A0AD115
:103E3000042B0CD92846FFF719FE01350A2D04F191
:103E40001804EAD1F8BD032A06D12774F5E7214604
:103E50006068FFF7C7FFF0E7042AEED12674ECE7AD
:103E6000843D00202DE9F043274D1446182202FB23
:103E7000045285B0127D012A0646884606D8234B97
:103E80002349244840F2ED2205F029FB182101FBCB
:103E9000045906F1250799F81430022B0DD1B9F811
:103EA0001230B3F58E7F17D9494604313046FFF7FB
:103EB00099FF10B9032389F81430182303FB045326
:103EC0004FF4006200920C333A464146304604F00B
:103ED00033FD05B0BDE8F083B3F5877FEDD304EB88
:103EE0004403DB0003F10C0204332B4402930A4B1E
:103EF00001930121331D039100932A443B46394627
:103F00003046FFF7C7FDD4E7803D00209D990008AB
:103F10002B9900088098000804AD00082DE9F347AC
:103F2000894680460146D9F80000164600F095FB08
:103F3000044600285ED1D9F8003003F0F002E02AF0
:103F400058D0002B56D001214846FFF70FFE051E22
:103F500053DB404F182303FB05731A7D1AB9012464
:103F60001C75C3F80880182303FB05731B7D33B948
:103F7000394B3A493A4840F2C93205F0B0FA0CB927
:103F8000002E3CD149464046FFF72CFF002E38D189
:103F900002B0BDE8F087FBD1DFF8BC80DFF8C89045
:103FA000DFF8BCA034469CB9304601F0DDFC002EA1
:103FB0004CD0B046182303FB05F21C46B85808B194
:103FC00001F014FB04FB05F3002047F80380DFE752
:103FD000628923899A4208D1236833B143464FF45A
:103FE0007B724946504605F07AFA237B012B1ED19D
:103FF0002468D8E76FF00F00CAE72846C8E74FF0FB
:10400000FF30182303FB0572127D012AC3D9154A1C
:1040100015700C2213FB05234FF4006200923B4401
:1040200008F125023146404604F086FCB0E7002244
:104030002189022001F044FB804638B1314601F06D
:10404000E9FC0028B6D0404601F0D0FA4FF0FF302E
:104050009EE700BF803D00209D9900085B99000805
:1040600080980008703E002083990008F0B50E4645
:1040700085B01546044630B93E4B3F493F4840F2B3
:104080001B3205F02CFA36B93A4B3D493B484FF408
:10409000477205F024FA35B9364B3A49374840F2B1
:1040A0001D3205F01CFA2146286800F0D6FA0028D7
:1040B0005BD12B6803F0F002E02A1DD101238DF8BB
:1040C00008305E238DF80A306B788DF8090003F014
:1040D0007F038DF80B30AB788DF80C30EB788DF8D2
:1040E0000D3002AB4FF400620092314604F125021C
:1040F000204604F021FC1FE06268A1685A400A4291
:1041000008D09BB24FF6A962934203D0E36873B321
:1041100004F10C051C4B1D491A78182000FB0210F5
:10412000017D0129194609D92F6843689F4205D1AD
:1041300031462046FFF796FE05B0F0BD134B002236
:10414000187D012806D92F685868874202D1D2B25B
:104150000A70EDE701320A2A03F11803F0D1324662
:1041600029462046FFF7DAFEE6E7094BBAE76FF08B
:104170000300E1E79D990008D499000880980008A1
:10418000DFA30008E8980008703E0020803D002072
:1041900098AC0008F0B5044687B00F4616462421B7
:1041A0000022012001F08CFA0546A0B34389232B9D
:1041B00006D81A4B1A491B484FF4B17205F08FF913
:1041C00022686C68002323716371A371E371277007
:1041D0006670134604F1080102F11C0053F8046BE9
:1041E00041F8046B8342F9D106AED36846F8043D2A
:1041F000304600F0BBF858B100210123A170E170F6
:10420000324602908DE80A002846FF2300F014FA97
:10421000284601F0EBF907B0F0BD00BFBB9A0008DB
:10422000F09A0008809800082DE9F043444BD3F839
:10423000089099F8005005F00F05AD00132D85B0DA
:10424000044688461F462AD94289032A27D942684C
:104250001278082A23D1586900F0F002E02A1ED013
:10426000196800F0FAF90646C8B92389072B16D950
:1042700005F10E01204601F0B3F900284FD0218945
:104280002944324689B2022001F01AFA064630B1BA
:10429000428905F108039A4207D201F0A7F92046A6
:1042A00005B0BDE8F04301F0A1B949462A4640688F
:1042B00005F063FA6942304601F092F938B1214BBA
:1042C00021492248AF2205F00AF93046E5E72146A8
:1042D000304601F09FFB0028F7D1204601F086F917
:1042E000344629462046666801F07AF902460028DD
:1042F000D5D161687B69CB603B690B61FF2330706E
:10430000B070F0700B728872C87201210191009038
:10431000CDF808800E49204600F08EF9BFE7C5F5BC
:104320007F41F23109B2204601F05AF90028D8D075
:10433000044B08490548C02205F0D1F8AFE700BF9B
:1043400068410020BB9A0008549A00088098000831
:104350007C410020899A00080A4604300321FFF7B7
:1043600019BF0A4604300B21FFF714BF30B5134BB9
:104370001B686BB9124A1268EAB192F82B1001F06F
:104380000501052917D15168002918BF134612E00D
:1043900093F82B4004F00502052AE9D15A68002A57
:1043A000E6D001689D684A402A4204D0A207DFD4C3
:1043B000DA689142DCD1184630BD00BF5C7800203D
:1043C000607800202DE9F84F476897F800904FEA91
:1043D0001913042B0546884605D0284601F006F936
:1043E0000020BDE8F88F7888FFF72AFB2B8909F0B9
:1043F0000F0983424FEA8909044603D9014628463A
:1044000001F03AFA6B894B45E7D32B89A342E4D3F9
:10441000B9F1130FE1D93B69494C636103F0F00333
:10442000FA682261E02B39D198F82B30DA0703D5EE
:10443000D8F80430002B58D100264146206900F0FE
:104440000CF90028C9D1236903F0F003E02BC4D094
:10445000002EC2D0FB8823F0C00333B1284600F001
:104460002BFA05460028BBD04768A76084E84001C6
:104470003B7803F00F039B00C9F100012846A3819C
:1044800001F0AEF87B7A062B3DD0112B2FD0012BFB
:104490003ED141462846FFF7C7FE2CE0DFF8A4B026
:1044A00046464FF0010A96F82B30DB0704D4BAF1E8
:1044B000000F0DD1366810E07368002BF7D06069EB
:1044C0008342BAD0314600F0C8F80028EFD0B4E7F4
:1044D000237D7F2BB0D0DBF80060464508BF3668EF
:1044E0004FF0000A002EDED1A6E74646A5E741467A
:1044F000284604F027F9002323606360A360A381AA
:10450000236163616CE74146284602F0B9FEF2E799
:104510003146606900F0A1F868B9636903F0F003FF
:10452000E02B08D04946284601F05DF86F60022173
:104530002846FFF711FF284601F058F8DBE700BFD7
:10454000684100205C7800202DE9F3471F46C389AD
:10455000DDF83080012B05468A46164606D0304BE2
:104560003049314840F2333204F0B9FF002E47D0D1
:104570001421284601F034F800284ED16B896C686C
:10458000132B06D8264B2949274840F2613204F004
:10459000A6FF9DF82C302772637233682361452390
:1045A00023709DF8283063702889DFF88890FFF722
:1045B00047FA00276080A771E771B9F80000FFF79C
:1045C0003FFAB9F80030A0800133A9F80030BAF101
:1045D000000F12D1164B1B68E360A772E772B8F8A0
:1045E00022309BB12A899A4210D932464146284648
:1045F00000F00CFB02B0BDE8F087DAF80030EBE722
:104600006B6802AE1B6946F8043DE8E7D8F8143041
:104610003246294640469847ECE76FF00100E9E74B
:104620001C9B0008509B0008809800085C9B0008B9
:104630008C9B0008723E0020F0B4069C9DF8105040
:104640009DF814601AB109B10F6807B9211D0694CD
:1046500005960495F0BCFFF777BF431E033311D8CE
:1046600091F82B3013F002030ED04A6890420BD021
:104670008B6842401A4207D1DB4383430CBF0120C1
:1046800000207047012070470020704738B50C4B60
:104690001A68824204460D4607D102681A60214614
:1046A0000420BDE8384000F01BBE31B9054B064977
:1046B000064840F2451204F012FF23682B60EEE733
:1046C000783E0020759C0008AE9C00088098000889
:1046D00081422DE9F84F05460F4605D12F4B304951
:1046E0003048AB2204F0FBFE47B13B689D4205D049
:1046F0002A4B2D492B48AD2204F0F1FE6E687368F9
:104700009A8892BB1A686A6005F11C0105F10802DB
:1047100052F8040B43F8040B8A42F9D101213046C8
:10472000FFF71FFE304601F017F90446304600F04F
:104730005DFF6E68DFF86480DFF87890DFF864A0D2
:10474000AEB92846194D3946FFF7A0FF2B88A34282
:1047500005D2124B16491348D22204F0C0FE2B8812
:104760001B1B2B802046BDE8F88F0024E1E773680F
:104770003046D3F800B001F0EFF80444B4F5803FC0
:1047800005DB4346CC224946504604F0A8FE30469D
:10479000A4B200F02BFF5E46D2E700BF759C000874
:1047A000C79C000880980008D39C0008743E002035
:1047B000029D0008E59C00082DE9F041DFF86C80BF
:1047C00006460F4600250024D8F800302146A646AC
:1047D000204653B910B1FFF77BFF0544BD4201DA13
:1047E000012CF0DC2846BDE8F081D6F80CC05A69EF
:1047F000624509D1D6F810C09A69624504D1B3F870
:104800000CC0B288944508D0013460B1C27F93F8DF
:104810001FC094459CBF714618461A68002A18BFED
:104820009E461346D5E771461846F6E7783E0020C7
:1048300010B5044630B9064B0649074840F2AE228F
:1048400004F04DFE21460520BDE8104000F048BDB3
:10485000759C00089BA300088098000810B50446CA
:1048600030B9084B084909484FF42E7204F037FE5E
:10487000606908B100F0BAFE2046BDE81040FFF7BD
:10488000D7BF00BF759C00081D9D000880980008D8
:1048900038B5084B1868002400B938BDC37F0568D7
:1048A00023B1013BC37704462846F5E72146FFF7CD
:1048B0000FFFF9E7783E00202DE9F74F45682B7888
:1048C00003F00F03052B074640F08C80E888B44CBA
:1048D000FFF7B6F8C0F30C004FEAC0096888FFF78D
:1048E000AFF82B7803F00F03A0EB830083B23846B8
:1048F000019301F031F8238803440A2B824668DCD7
:10490000A84E3468002C72D1042000F0CDFC04467F
:1049100058B951462846FFF74FFF824562DC042014
:1049200000F0C2FC044600285CD020220021204672
:1049300004F02EFF0323E3773368236034602B46B3
:1049400004F1080205F1140153F8040B42F8040BBA
:104950008B42F9D1B5F806B01BF0200B08D1019BB2
:104960004B449BB299453DD84FF6EB72934239D8F0
:104970007D686888FFF764F895F8008008F00F08F4
:10498000A0EB8808E888FFF75BF8C0F30C001FFA7B
:1049900088F8C0007E68D4F804E0B08008EB00031B
:1049A00000259BB235707570B570F570F380724656
:1049B0004FF0010852BB002D40F09280BEF1000F75
:1049C0007DD0794B79497A484FF4DA7204F087FD4B
:1049D00075E001462846FFF7EFFE18B123885344DF
:1049E0000A2B8DDD384600F001FE0025D4E0EB688F
:1049F00062699A4208D12B69A2699A4204D1A289BC
:104A0000AB889A4200F0DC8024687BE7D2F804C0CF
:104A1000BCF80410884254D23260002D4DD0EA8890
:104A20009042C0F091808B4200F28E802F609042C5
:104A300040F0E480BBF1000F04D0A37F13F001032A
:104A400000F0DA80B8F1000F59D14FF00008544E51
:104A500033889A44A6F800A0BBF1000F07D1019B50
:104A60009944A37FA4F81C9043F00103A377B8F105
:104A7000010FBAD1A38B1433A38363685D682F68D9
:104A800004F108032A4604F11C0153F8040B42F810
:104A9000040B8B42F9D1A08BFEF7D2FF0023688074
:104AA000AB71EB71AB72EB726568002F57D13D4B68
:104AB00019688C4265D1394665E08B4244D86760FD
:104AC000B8E741D0BCF8062082423DD825B1EA883B
:104AD0008A4218BF4FF00008DCF80020654669E7FD
:104AE000EB88834206D9304B3249314840F2AB1251
:104AF00004F0F5FC2F60EA88B3889A4298E763686F
:104B0000002BA2D059688B88002B9ED133689BB9AB
:104B1000B14206D1244B284925484FF4EB7204F0EA
:104B2000DEFC3368002B92D01F4B244920484FF401
:104B3000EC7204F0D4FC8AE75A68F08893889842B3
:104B400083D113681646E2E7384600F005FF144AA1
:104B50001388181A1080384600F048FD42E7D7F84D
:104B600004806FF01301384600F03AFD39462846BC
:104B700000F016FFD8F8007097E70B689C4202D04F
:104B800019460029F9D12046FFF780FD284600F09C
:104B9000E3FE3388181A3080284603B0BDE8F08F52
:104BA000743E0020783E0020759C00080F9C000891
:104BB00080980008F19B0008469C0008539C000860
:104BC000E888FEF73DFFC0F30C0000287FF4C2AE7A
:104BD000E089FEF735FFC0F30C0000283FF4BAAEC1
:104BE0002B4604F1080205F1140153F8040B42F8B6
:104BF000040B8B42F9D1ADE6984628E7BBF1000FD4
:104C00003FF423AF4FF0000817E700BF2DE9F04F46
:104C1000B1F822808BB00823A8F1140898FBF3F8B0
:104C20001FFA88F30693436808921E78029306F0F1
:104C30000F06B600142E07468B460BD05A4B5B4925
:104C400040F2E1225A4804F04AFC6FF005000BB034
:104C5000BDE8F08F029BD888FEF7F2FEC0F30C038C
:104C600010F40054049304D04F4B524940F2E62212
:104C7000E8E73D891FFA88F8143D4FEAC803ADB252
:104C800007930DB92846E2E7079BAB42A8BF2B4626
:104C90009BB2002214210220059300F011FD8046F2
:104CA00070B37B89132B06D83F4B4349404840F2F1
:104CB000093204F014FC029BD8F804201946143180
:104CC00053F8040B42F8040B8B42F9D1D8F80430A6
:104CD000DDF814900393B9F1000F37D07C89A41B41
:104CE000A4B24C4528BF4C4614B93F680026F2E7F1
:104CF000052000F0D9FA824628B9404600F076FC3B
:104D00004FF0FF30A3E701947B6833440093022205
:104D100003462146042000F02BFC18B95046FFF74B
:104D200087FDEAE70990384600F01EFEA9EB04096A
:104D3000224BCAF81470CAF81030099940461FFA7D
:104D400089F900F02DFEB9F1000FCED1049BC3F319
:104D50000C00BBF82230133B9D42A8BF40F400502A
:104D6000FEF76EFE039BD880059B03F1140080B212
:104D7000FEF766FE039B039A588000239372D3725A
:104D80004146DBF81430089A58469847404600F0F0
:104D90002DFC059B069AED1A049B134426449BB2F6
:104DA000B6B2ADB204936CE7759C0008909B000806
:104DB00080980008B79B0008D19B00085D48000858
:104DC000124B134A23F00303002110B513605980DE
:104DD0004FF4C86219710F491A8098180860A3F837
:104DE00040260121A3F842260B4A83F844160B48BB
:104DF000136003F037FE40B1094B0A490A484FF4EB
:104E0000CC72BDE8104004F06ABB10BD83410020A5
:104E1000843E0020883E00207C3E0020803E002012
:104E2000EB9D00081A9E0008809800082DE9F041CB
:104E30000446002800F09680830706D04A4B4B4971
:104E40004B484FF4D67204F04AFB4A4F3B689C42F1
:104E500003D3494B1B689C4206D3434B4749444804
:104E600040F2AF1204F03BFB3B689C4204D3424B40
:104E70001A689442984605D303F022FEBDE8F0413B
:104E800003F02ABE3E4803F0FCFD14F8043CA4F1F4
:104E9000080533B9344B3B4935484FF4E07204F010
:104EA0001EFB394E002304F8043C33689D423B68E6
:104EB00038BF35609D4206D22B4B34492C4840F216
:104EC0005D1204F00CFBD8F800309D4206D3264B4F
:104ED0002F4927484FF4AF7204F001FB14F8043C4B
:104EE00033B1214B2B49224840F25F1204F0F7FA0C
:104EF00034F8083CB3F5C86F06D91B4B26491C484B
:104F00004FF4B17204F0EBFA3B6834F8081C5A18FD
:104F1000954210D0107970B9D8F8000082420AD0BA
:104F2000306882425A5A24F8082C5A5A08BF356011
:104F30001A44E91A518034F8062C99188D420CD085
:104F4000087950B93068854208BF316034F8081CD0
:104F5000995234F8081C0B445A800948BDE8F041C6
:104F600003F094BDBDE8F081EB9D0008299D000889
:104F700080980008843E0020883E00204A9D00085A
:104F8000803E0020619D00087C3E0020759D000849
:104F90008C9D0008A69D0008C19D00082DE9F041E8
:104FA00003314FF6FC750D400B2D044604D9B5F5C1
:104FB000C86F02D900241CE00C25364B1A68A242A7
:104FC000984603D8344B1B689C4206D3334B344974
:104FD00034484FF4FA7204F082FAD8F800309C4258
:104FE00003D32D4A1268944206D303F069FD03F0FF
:104FF00073FD2046BDE8F081A4F1080634F8087C72
:10500000F61AB6B2083FBF1BBFB2AF4219D2234B4C
:105010002549244840F2062204F061FACAE705F166
:105020001402BA4231D8214806F108021544076833
:10503000ADB25A19BA4238BF0260002010715953FC
:105040001AE0D6D01A4803F01CFDD8F8003034F826
:10505000081C58180279002AE1D15F5A134906F159
:10506000080215440A68ADB2904203EB050208BF7E
:105070000A60002111715F53568024F8085C5A5B66
:10508000B2F5C86F1CBF9B185D80094803F0FEFC99
:10509000AFE700BF843E0020883E0020EB9D000863
:1050A000D09E000880980008E79E00087C3E002003
:1050B000803E00202DE9F84348B103304FF6FC75DF
:1050C00005400B2D05D9B5F5C86F03D90020BDE803
:1050D000F8830C253C483D4E03F0D3FC3C48316836
:1050E00007687B1A9BB2C5F5C8686FF0070943458E
:1050F00003D3354803F0CAFCE8E7CC1831F803E0E5
:1051000094F804C0BCF1000F5BD1A9EB0302724418
:10511000954256D805F1140842454CD305F10802D2
:105120001A4492B201EB020888F804C021F802E0A8
:10513000A8F802300123228023718B5AB3F5C86F7F
:1051400001D019444A80A742224F11D139683668EC
:1051500023461A790AB18B4230D18B42036007D0C3
:1051600032B11D4B1D491E4840F2CF2204F0B7F961
:10517000154803F08BFC08353B682544AB4206D24A
:10518000154B184916484FF4357204F0A8F9A307D7
:105190000DD0114B1449124840F2D62204F09FF969
:1051A0000D4B12490E484FF4367204F098F904F191
:1051B0000800BDE8F88301232371C4E71B8833444A
:1051C000C7E7734693E700BF803E0020843E00207F
:1051D0007C3E0020883E0020EB9D0008359E0008A4
:1051E000809800084E9E00087E9E0008AD9E000834
:1051F00038B5044603F064FC23681C6805465CB1BE
:1052000022681A60A30706D0054B0649064840F2FB
:10521000491204F064F9284603F05EFC204638BDCC
:10522000279F0008579F00088098000838B58B0713
:1052300005460C4606D0084B0849094840F29D1225
:1052400004F04DF903F03CFC2B681A6822601C60E6
:10525000BDE8384003F040BC279F0008079F0008C6
:10526000809800084368816830B500220333448881
:105270000A6023F00303A24200DB30BD0D681D600D
:1052800005880B6001322B44F5E7000038B5054D69
:10529000002455F824000134FFF7E4FF0D2CF8D169
:1052A00038BD00BF50A000080C2808B507D8084B2F
:1052B00053F82000BDE808400830FFF799BF054BC0
:1052C0000549064840F2871204F009F9002008BD9C
:1052D00050A00008279F000833A00008809800080D
:1052E0000C2806D9074B0849084840F2DB1204F0A5
:1052F000F6B829B1064B53F820000830FFF796BFE7
:10530000704700BF279F000818A000088098000879
:1053100050A0000890F82B301B07014602D504313D
:10532000FEF760BD7047704773B505460C46B9B1CE
:105330000B680193019A6B689A420FD02E1D01A948
:10534000304601F0F5F901A9304603F093FA04B1B3
:1053500024686C6014B12846FFF7DCFF02B070BD12
:10536000014B1B68E5E700BF8C9B000870B5064643
:1053700015461C4609B10B684BB93046FFF7D4FF00
:1053800005B12D68B56004B12468F46070BD02B148
:105390001568B56004B12468F4603046BDE870401B
:1053A000FFF7C2BF2DE9F843099E04460F46904619
:1053B00099462EB9154B16491648FB2204F08FF872
:1053C000154A032384F82030089BE361137884F89E
:1053D0002E300025591C0A9B117023612046656000
:1053E000A560E56084F82B504B4642463946FFF7EE
:1053F000BDFF2046B04730B9084B1A6822601C60D8
:105400002046BDE8F8832C46FAE700BF84A00008D8
:10541000B5A0000880980008C03E00205C780020FD
:10542000014B1860704700BF6078002090F82B2077
:10543000D10709D442F00101520780F82B1003D59F
:1054400043680BB1FFF766BF704790F82B30D90760
:1054500007D523F001011B0780F82B1001D5FEF7BB
:105460000FBC704710B503F02BFB094B00221A70DC
:1054700003F032FB074B1C6804B910BD206F20B14C
:1054800000F042FC0023236710BDE468F4E700BF8E
:10549000647800206C78002038B5044600282FD1AD
:1054A0001F4B2049204840F23F2204F018F800200A
:1054B00038BD88B2257B63680DB1032D06D15B1A18
:1054C00004F1100293420AD2012038BD013D012DA2
:1054D00011D800290CDA62898242F5D35B1A20893F
:1054E0006360638989B20B44014463812181DEE7F3
:1054F000002AF3D1E8E70A4B0C4940F277220BE08F
:105500000029D4D0D5DA4842638980B28342D1D20F
:10551000034B074940F24722034803F0E0FFD3E77B
:1055200031A300089BA30008809800087FA300080F
:1055300061A3000838B50C4D03F0C2FA2C780123A2
:10554000E4B22B7003F0C8FA64B92246214607483A
:10555000FEF716FA30B103F0B3FA2C70BDE838400C
:1055600003F0BABA38BD00BF647800206554000863
:1055700070B5049D04281ED8DFE800F02603281B20
:105580001B0022240334BDF8140024F003040E1978
:1055900086424FF000000BD81860CDB12C445C60FF
:1055A00002201A730122587319815981DA81184631
:1055B00070BD0024E6E7074B0749084840F2C512D2
:1055C00003F08DFF002070BD3624DBE70E24D9E701
:1055D0005D60E5E731A3000874A100088098000829
:1055E0000022FFF759BF0122FFF756BF2DE9F84F00
:1055F000044650B92C4B2D492D4840F2D22203F0DD
:105600006EFF27463846BDE8F88F037B032B06D98B
:10561000254B2849264840F2DE2203F060FFDFF8E0
:105620008880DFF898A0DFF888900026F7B2002C79
:10563000E8D003F045FAE389834633B9434640F2A4
:10564000EB225146484603F04AFFE589013DADB2E1
:10565000E581584603F040FA002DD3D1637B2568DD
:105660009B070ED5236933B9434640F2F92212490C
:10567000484603F034FF23692046984701362C46FC
:10568000D4E7237B032B04D121460C20FFF728FE0F
:10569000F4E7013B012B02D821460B20F6E7204618
:1056A000FFF7C4FBEAE700BF31A300089BA3000893
:1056B00080980008E5A2000810A30008FAA20008DC
:1056C0002DE9F84F0E46174604280ED8DFE800F003
:1056D0001503170B0B002225032F00F2BA80DFE819
:1056E00007F090ABAB100025F6E75C4B5C494FF43C
:1056F0008B725C4803F0F3FE4AE03625ECE70E259A
:10570000EAE70C20FFF7D0FD044620B9FFF712FFAF
:105710002046BDE8F88F0323037300230360431979
:10572000033525F00305C5F51475B54203F11303E0
:1057300028BF354623F00303436000F518772B4458
:105740009F420681458106D2444B474945484FF464
:10575000987203F0C4FE0123E3816389DFF8FC80C3
:10576000DFF810A1DFF8FC90F61AA346002E04DC47
:105770000123E38100236373CAE70C20FFF794FD44
:105780000023054630B9FFF7D5FE2046FFF72EFF70
:105790000024BDE7437303604FF6FF7303229E426C
:1057A0000273CBF8000006D143464FF4A67251466F
:1057B000484603F094FEB3B2B3F5147F2B8128BFA3
:1057C0004FF414736B8105F110036B609B0706D0D7
:1057D00043464FF4A9722549484603F080FE62898A
:1057E000636813449F4206D2434640F255121E4955
:1057F000484603F074FE0123EB816B89AB46F61A31
:10580000B4E705F11300F31C23F0030320F00300B9
:10581000184480B29842BBD3FFF74CFC04460028E2
:10582000B6D005441335002325F0030545600681F5
:105830004681036003739BE70B20FFF735FD0446A9
:105840000028A5D0002343600681468103600773CA
:105850008EE7024B06494FF4C6724AE731A30008AF
:10586000CCA0000880980008E7A000082CA1000840
:1058700059A1000818A100082DE9F8430D46044677
:1058800030B92E4B2E492F4840F2F31203F027FE79
:10589000237B032B06D9294B2B492A4840F2F712C8
:1058A00003F01DFE2689AE4245D9244FDFF8A490AF
:1058B000DFF89080AE1B63899D4219D8227B002AB5
:1058C00031D19D422FD0637B9B072CD46168091B8B
:1058D0002944204689B2FFF761FB044618BB174BE9
:1058E0001A49184840F21D2203F0F9FD6481FFDED9
:1058F000ED1A4FF6FE739E42ADB206DD3B4640F216
:105900000B224946404603F0EAFD238933442381B4
:105910002468002CCFD13B4640F20F220C49404670
:1059200003F0DDFDC7E720686581258108B1FFF739
:105930005DFE00232360BDE8F88300BF31A30008AB
:105940008DA3000880980008A5A30008E9A300081B
:10595000D1A30008C0A300080346002290B2013280
:1059600003B970471B68F9E710B5044688B103F026
:10597000A7F8E3890133E38103F0AEF8E38943B983
:10598000044B0549054840F23932BDE8104003F0A8
:10599000A6BD10BD31A3000805A40008809800082A
:1059A00070B50D46044600B169B9154B1549164846
:1059B00040F24D32BDE8704003F091BD2389298942
:1059C0000B44238114462268002AF7D12289638977
:1059D0009A4206D00A4B0D490B4840F2553203F06B
:1059E0007EFD236833B1064B0949074840F2563221
:1059F00003F075FD2A89238925601344238170BD36
:105A000031A3000898A1000880980008CDA10008E3
:105A1000FAA100082DE9F84F0C46054620B119B14E
:105A200002890B899A420AD2384B394940F2BD3279
:105A3000384803F054FD6FF00F00BDE8F88F4FF0C9
:105A4000000BDFF8C880DFF8DCA0DFF8C8905F4605
:105A50006E89638968686168F61BA3EB0B039E423D
:105A6000ACBF9EB2B6B232465944384403F085FE0C
:105A700037446B89BFB25E44BB421FFA86FB06D235
:105A8000434640F2CD325146484603F028FD638933
:105A90005B4506D2434640F2CE321F49484603F0EA
:105AA0001EFD63895B456B899CBF24684FF0000B2A
:105AB000BB421ED12D68DDB9BCB1144B17494FF460
:105AC0007672B5E7628923899A4214D1236893B12B
:105AD0000E4B40F2DE3212490E4803F000FD6FF02B
